{
  "address": "0x9294f1C8879C9AFA902EA12C147E4BBD0F742CdB",
  "abi": [
    {
      "inputs": [],
      "stateMutability": "nonpayable",
      "type": "constructor"
    },
    {
      "inputs": [],
      "name": "AccessControlBadConfirmation",
      "type": "error"
    },
    {
      "inputs": [
        {
          "internalType": "address",
          "name": "account",
          "type": "address"
        },
        {
          "internalType": "bytes32",
          "name": "neededRole",
          "type": "bytes32"
        }
      ],
      "name": "AccessControlUnauthorizedAccount",
      "type": "error"
    },
    {
      "inputs": [
        {
          "internalType": "address",
          "name": "target",
          "type": "address"
        }
      ],
      "name": "AddressEmptyCode",
      "type": "error"
    },
    {
      "inputs": [
        {
          "internalType": "address",
          "name": "account",
          "type": "address"
        }
      ],
      "name": "AddressInsufficientBalance",
      "type": "error"
    },
    {
      "inputs": [],
      "name": "ECDSAInvalidSignature",
      "type": "error"
    },
    {
      "inputs": [
        {
          "internalType": "uint256",
          "name": "length",
          "type": "uint256"
        }
      ],
      "name": "ECDSAInvalidSignatureLength",
      "type": "error"
    },
    {
      "inputs": [
        {
          "internalType": "bytes32",
          "name": "s",
          "type": "bytes32"
        }
      ],
      "name": "ECDSAInvalidSignatureS",
      "type": "error"
    },
    {
      "inputs": [
        {
          "internalType": "address",
          "name": "sender",
          "type": "address"
        },
        {
          "internalType": "uint256",
          "name": "balance",
          "type": "uint256"
        },
        {
          "internalType": "uint256",
          "name": "needed",
          "type": "uint256"
        },
        {
          "internalType": "uint256",
          "name": "tokenId",
          "type": "uint256"
        }
      ],
      "name": "ERC1155InsufficientBalance",
      "type": "error"
    },
    {
      "inputs": [
        {
          "internalType": "address",
          "name": "approver",
          "type": "address"
        }
      ],
      "name": "ERC1155InvalidApprover",
      "type": "error"
    },
    {
      "inputs": [
        {
          "internalType": "uint256",
          "name": "idsLength",
          "type": "uint256"
        },
        {
          "internalType": "uint256",
          "name": "valuesLength",
          "type": "uint256"
        }
      ],
      "name": "ERC1155InvalidArrayLength",
      "type": "error"
    },
    {
      "inputs": [
        {
          "internalType": "address",
          "name": "operator",
          "type": "address"
        }
      ],
      "name": "ERC1155InvalidOperator",
      "type": "error"
    },
    {
      "inputs": [
        {
          "internalType": "address",
          "name": "receiver",
          "type": "address"
        }
      ],
      "name": "ERC1155InvalidReceiver",
      "type": "error"
    },
    {
      "inputs": [
        {
          "internalType": "address",
          "name": "sender",
          "type": "address"
        }
      ],
      "name": "ERC1155InvalidSender",
      "type": "error"
    },
    {
      "inputs": [
        {
          "internalType": "address",
          "name": "operator",
          "type": "address"
        },
        {
          "internalType": "address",
          "name": "owner",
          "type": "address"
        }
      ],
      "name": "ERC1155MissingApprovalForAll",
      "type": "error"
    },
    {
      "inputs": [],
      "name": "EnforcedPause",
      "type": "error"
    },
    {
      "inputs": [],
      "name": "ExpectedPause",
      "type": "error"
    },
    {
      "inputs": [],
      "name": "FailedInnerCall",
      "type": "error"
    },
    {
      "inputs": [],
      "name": "InvalidInitialization",
      "type": "error"
    },
    {
      "inputs": [],
      "name": "InvalidSignature",
      "type": "error"
    },
    {
      "inputs": [
        {
          "internalType": "string",
          "name": "param",
          "type": "string"
        }
      ],
      "name": "InvalidTokenId",
      "type": "error"
    },
    {
      "inputs": [],
      "name": "NotEnoughUsdtAllowance",
      "type": "error"
    },
    {
      "inputs": [],
      "name": "NotEnoughUsdtOnBalance",
      "type": "error"
    },
    {
      "inputs": [],
      "name": "NotInitializing",
      "type": "error"
    },
    {
      "inputs": [
        {
          "internalType": "string",
          "name": "param",
          "type": "string"
        }
      ],
      "name": "PurchaseLimitExceeded",
      "type": "error"
    },
    {
      "inputs": [
        {
          "internalType": "address",
          "name": "token",
          "type": "address"
        }
      ],
      "name": "SafeERC20FailedOperation",
      "type": "error"
    },
    {
      "inputs": [
        {
          "internalType": "string",
          "name": "param",
          "type": "string"
        }
      ],
      "name": "ZeroAddressProvided",
      "type": "error"
    },
    {
      "inputs": [
        {
          "internalType": "string",
          "name": "param",
          "type": "string"
        }
      ],
      "name": "ZeroOrNegativeValueProvided",
      "type": "error"
    },
    {
      "inputs": [
        {
          "internalType": "string",
          "name": "param",
          "type": "string"
        }
      ],
      "name": "ZeroValueProvided",
      "type": "error"
    },
    {
      "anonymous": false,
      "inputs": [
        {
          "indexed": false,
          "internalType": "address",
          "name": "newApiSigner",
          "type": "address"
        }
      ],
      "name": "ApiSignerUpdate",
      "type": "event"
    },
    {
      "anonymous": false,
      "inputs": [
        {
          "indexed": true,
          "internalType": "address",
          "name": "account",
          "type": "address"
        },
        {
          "indexed": true,
          "internalType": "address",
          "name": "operator",
          "type": "address"
        },
        {
          "indexed": false,
          "internalType": "bool",
          "name": "approved",
          "type": "bool"
        }
      ],
      "name": "ApprovalForAll",
      "type": "event"
    },
    {
      "anonymous": false,
      "inputs": [
        {
          "indexed": true,
          "internalType": "address",
          "name": "buyer",
          "type": "address"
        },
        {
          "indexed": false,
          "internalType": "uint256",
          "name": "amountUsdt",
          "type": "uint256"
        },
        {
          "indexed": false,
          "internalType": "uint256",
          "name": "amount",
          "type": "uint256"
        }
      ],
      "name": "BuySpins",
      "type": "event"
    },
    {
      "anonymous": false,
      "inputs": [
        {
          "indexed": true,
          "internalType": "address",
          "name": "claimer",
          "type": "address"
        },
        {
          "indexed": false,
          "internalType": "uint256",
          "name": "tokenId",
          "type": "uint256"
        },
        {
          "indexed": false,
          "internalType": "uint256",
          "name": "amount",
          "type": "uint256"
        }
      ],
      "name": "ClaimReward",
      "type": "event"
    },
    {
      "anonymous": false,
      "inputs": [],
      "name": "EIP712DomainChanged",
      "type": "event"
    },
    {
      "anonymous": false,
      "inputs": [
        {
          "indexed": false,
          "internalType": "uint64",
          "name": "version",
          "type": "uint64"
        }
      ],
      "name": "Initialized",
      "type": "event"
    },
    {
      "anonymous": false,
      "inputs": [
        {
          "indexed": false,
          "internalType": "uint256",
          "name": "newMaxSpinsPerDay",
          "type": "uint256"
        }
      ],
      "name": "MaxSpinsPerDayUpdate",
      "type": "event"
    },
    {
      "anonymous": false,
      "inputs": [
        {
          "indexed": false,
          "internalType": "address",
          "name": "account",
          "type": "address"
        }
      ],
      "name": "Paused",
      "type": "event"
    },
    {
      "anonymous": false,
      "inputs": [
        {
          "indexed": true,
          "internalType": "bytes32",
          "name": "role",
          "type": "bytes32"
        },
        {
          "indexed": true,
          "internalType": "bytes32",
          "name": "previousAdminRole",
          "type": "bytes32"
        },
        {
          "indexed": true,
          "internalType": "bytes32",
          "name": "newAdminRole",
          "type": "bytes32"
        }
      ],
      "name": "RoleAdminChanged",
      "type": "event"
    },
    {
      "anonymous": false,
      "inputs": [
        {
          "indexed": true,
          "internalType": "bytes32",
          "name": "role",
          "type": "bytes32"
        },
        {
          "indexed": true,
          "internalType": "address",
          "name": "account",
          "type": "address"
        },
        {
          "indexed": true,
          "internalType": "address",
          "name": "sender",
          "type": "address"
        }
      ],
      "name": "RoleGranted",
      "type": "event"
    },
    {
      "anonymous": false,
      "inputs": [
        {
          "indexed": true,
          "internalType": "bytes32",
          "name": "role",
          "type": "bytes32"
        },
        {
          "indexed": true,
          "internalType": "address",
          "name": "account",
          "type": "address"
        },
        {
          "indexed": true,
          "internalType": "address",
          "name": "sender",
          "type": "address"
        }
      ],
      "name": "RoleRevoked",
      "type": "event"
    },
    {
      "anonymous": false,
      "inputs": [
        {
          "indexed": false,
          "internalType": "uint256",
          "name": "newSpinPriceUsdt",
          "type": "uint256"
        }
      ],
      "name": "SpinPriceUsdtUpdate",
      "type": "event"
    },
    {
      "anonymous": false,
      "inputs": [
        {
          "indexed": true,
          "internalType": "address",
          "name": "operator",
          "type": "address"
        },
        {
          "indexed": true,
          "internalType": "address",
          "name": "from",
          "type": "address"
        },
        {
          "indexed": true,
          "internalType": "address",
          "name": "to",
          "type": "address"
        },
        {
          "indexed": false,
          "internalType": "uint256[]",
          "name": "ids",
          "type": "uint256[]"
        },
        {
          "indexed": false,
          "internalType": "uint256[]",
          "name": "values",
          "type": "uint256[]"
        }
      ],
      "name": "TransferBatch",
      "type": "event"
    },
    {
      "anonymous": false,
      "inputs": [
        {
          "indexed": true,
          "internalType": "address",
          "name": "operator",
          "type": "address"
        },
        {
          "indexed": true,
          "internalType": "address",
          "name": "from",
          "type": "address"
        },
        {
          "indexed": true,
          "internalType": "address",
          "name": "to",
          "type": "address"
        },
        {
          "indexed": false,
          "internalType": "uint256",
          "name": "id",
          "type": "uint256"
        },
        {
          "indexed": false,
          "internalType": "uint256",
          "name": "value",
          "type": "uint256"
        }
      ],
      "name": "TransferSingle",
      "type": "event"
    },
    {
      "anonymous": false,
      "inputs": [
        {
          "indexed": false,
          "internalType": "string",
          "name": "value",
          "type": "string"
        },
        {
          "indexed": true,
          "internalType": "uint256",
          "name": "id",
          "type": "uint256"
        }
      ],
      "name": "URI",
      "type": "event"
    },
    {
      "anonymous": false,
      "inputs": [
        {
          "indexed": false,
          "internalType": "address",
          "name": "account",
          "type": "address"
        }
      ],
      "name": "Unpaused",
      "type": "event"
    },
    {
      "inputs": [],
      "name": "BOND",
      "outputs": [
        {
          "internalType": "uint256",
          "name": "",
          "type": "uint256"
        }
      ],
      "stateMutability": "view",
      "type": "function"
    },
    {
      "inputs": [],
      "name": "DAY_IN_SECONDS",
      "outputs": [
        {
          "internalType": "uint256",
          "name": "",
          "type": "uint256"
        }
      ],
      "stateMutability": "view",
      "type": "function"
    },
    {
      "inputs": [],
      "name": "DEFAULT_ADMIN_ROLE",
      "outputs": [
        {
          "internalType": "bytes32",
          "name": "",
          "type": "bytes32"
        }
      ],
      "stateMutability": "view",
      "type": "function"
    },
    {
      "inputs": [],
      "name": "MINTER_ROLE",
      "outputs": [
        {
          "internalType": "bytes32",
          "name": "",
          "type": "bytes32"
        }
      ],
      "stateMutability": "view",
      "type": "function"
    },
    {
      "inputs": [],
      "name": "PAUSER_ROLE",
      "outputs": [
        {
          "internalType": "bytes32",
          "name": "",
          "type": "bytes32"
        }
      ],
      "stateMutability": "view",
      "type": "function"
    },
    {
      "inputs": [],
      "name": "URI_SETTER_ROLE",
      "outputs": [
        {
          "internalType": "bytes32",
          "name": "",
          "type": "bytes32"
        }
      ],
      "stateMutability": "view",
      "type": "function"
    },
    {
      "inputs": [],
      "name": "USDT",
      "outputs": [
        {
          "internalType": "uint256",
          "name": "",
          "type": "uint256"
        }
      ],
      "stateMutability": "view",
      "type": "function"
    },
    {
      "inputs": [],
      "name": "VOUCHER",
      "outputs": [
        {
          "internalType": "uint256",
          "name": "",
          "type": "uint256"
        }
      ],
      "stateMutability": "view",
      "type": "function"
    },
    {
      "inputs": [],
      "name": "WOFR",
      "outputs": [
        {
          "internalType": "uint256",
          "name": "",
          "type": "uint256"
        }
      ],
      "stateMutability": "view",
      "type": "function"
    },
    {
      "inputs": [
        {
          "internalType": "address",
          "name": "account",
          "type": "address"
        },
        {
          "internalType": "uint256",
          "name": "id",
          "type": "uint256"
        }
      ],
      "name": "balanceOf",
      "outputs": [
        {
          "internalType": "uint256",
          "name": "",
          "type": "uint256"
        }
      ],
      "stateMutability": "view",
      "type": "function"
    },
    {
      "inputs": [
        {
          "internalType": "address[]",
          "name": "accounts",
          "type": "address[]"
        },
        {
          "internalType": "uint256[]",
          "name": "ids",
          "type": "uint256[]"
        }
      ],
      "name": "balanceOfBatch",
      "outputs": [
        {
          "internalType": "uint256[]",
          "name": "",
          "type": "uint256[]"
        }
      ],
      "stateMutability": "view",
      "type": "function"
    },
    {
      "inputs": [
        {
          "internalType": "uint256",
          "name": "_amountSpins",
          "type": "uint256"
        }
      ],
      "name": "buySpins",
      "outputs": [],
      "stateMutability": "nonpayable",
      "type": "function"
    },
    {
      "inputs": [
        {
          "internalType": "address",
          "name": "buyer",
          "type": "address"
        }
      ],
      "name": "canBuySpins",
      "outputs": [
        {
          "internalType": "bool",
          "name": "",
          "type": "bool"
        }
      ],
      "stateMutability": "view",
      "type": "function"
    },
    {
      "inputs": [
        {
          "internalType": "address",
          "name": "_to",
          "type": "address"
        },
        {
          "internalType": "uint256",
          "name": "_tokenId",
          "type": "uint256"
        },
        {
          "internalType": "uint256",
          "name": "_amount",
          "type": "uint256"
        },
        {
          "internalType": "bytes",
          "name": "_data",
          "type": "bytes"
        },
        {
          "internalType": "bytes",
          "name": "_signature",
          "type": "bytes"
        }
      ],
      "name": "claim",
      "outputs": [],
      "stateMutability": "nonpayable",
      "type": "function"
    },
    {
      "inputs": [],
      "name": "eip712Domain",
      "outputs": [
        {
          "internalType": "bytes1",
          "name": "fields",
          "type": "bytes1"
        },
        {
          "internalType": "string",
          "name": "name",
          "type": "string"
        },
        {
          "internalType": "string",
          "name": "version",
          "type": "string"
        },
        {
          "internalType": "uint256",
          "name": "chainId",
          "type": "uint256"
        },
        {
          "internalType": "address",
          "name": "verifyingContract",
          "type": "address"
        },
        {
          "internalType": "bytes32",
          "name": "salt",
          "type": "bytes32"
        },
        {
          "internalType": "uint256[]",
          "name": "extensions",
          "type": "uint256[]"
        }
      ],
      "stateMutability": "view",
      "type": "function"
    },
    {
      "inputs": [
        {
          "internalType": "uint256",
          "name": "id",
          "type": "uint256"
        }
      ],
      "name": "exists",
      "outputs": [
        {
          "internalType": "bool",
          "name": "",
          "type": "bool"
        }
      ],
      "stateMutability": "view",
      "type": "function"
    },
    {
      "inputs": [
        {
          "internalType": "address",
          "name": "buyer",
          "type": "address"
        }
      ],
      "name": "getAvailableSpins",
      "outputs": [
        {
          "internalType": "uint256",
          "name": "",
          "type": "uint256"
        }
      ],
      "stateMutability": "view",
      "type": "function"
    },
    {
      "inputs": [
        {
          "internalType": "address",
          "name": "_address",
          "type": "address"
        }
      ],
      "name": "getNonce",
      "outputs": [
        {
          "internalType": "uint256",
          "name": "",
          "type": "uint256"
        }
      ],
      "stateMutability": "view",
      "type": "function"
    },
    {
      "inputs": [
        {
          "internalType": "bytes32",
          "name": "role",
          "type": "bytes32"
        }
      ],
      "name": "getRoleAdmin",
      "outputs": [
        {
          "internalType": "bytes32",
          "name": "",
          "type": "bytes32"
        }
      ],
      "stateMutability": "view",
      "type": "function"
    },
    {
      "inputs": [
        {
          "internalType": "address",
          "name": "buyer",
          "type": "address"
        }
      ],
      "name": "getTotalSpins",
      "outputs": [
        {
          "internalType": "uint256",
          "name": "",
          "type": "uint256"
        }
      ],
      "stateMutability": "view",
      "type": "function"
    },
    {
      "inputs": [
        {
          "internalType": "bytes32",
          "name": "role",
          "type": "bytes32"
        },
        {
          "internalType": "address",
          "name": "account",
          "type": "address"
        }
      ],
      "name": "grantRole",
      "outputs": [],
      "stateMutability": "nonpayable",
      "type": "function"
    },
    {
      "inputs": [
        {
          "internalType": "bytes32",
          "name": "role",
          "type": "bytes32"
        },
        {
          "internalType": "address",
          "name": "account",
          "type": "address"
        }
      ],
      "name": "hasRole",
      "outputs": [
        {
          "internalType": "bool",
          "name": "",
          "type": "bool"
        }
      ],
      "stateMutability": "view",
      "type": "function"
    },
    {
      "inputs": [
        {
          "internalType": "address",
          "name": "_admin",
          "type": "address"
        },
        {
          "internalType": "contract IERC20",
          "name": "_usdtContract",
          "type": "address"
        },
        {
          "internalType": "address",
          "name": "_treasuryWallet",
          "type": "address"
        },
        {
          "internalType": "address",
          "name": "_apiSigner",
          "type": "address"
        },
        {
          "internalType": "uint256",
          "name": "_spinPriceUsdt",
          "type": "uint256"
        },
        {
          "internalType": "uint256",
          "name": "_maxSpinsPerDay",
          "type": "uint256"
        }
      ],
      "name": "initialize",
      "outputs": [],
      "stateMutability": "nonpayable",
      "type": "function"
    },
    {
      "inputs": [
        {
          "internalType": "address",
          "name": "account",
          "type": "address"
        },
        {
          "internalType": "address",
          "name": "operator",
          "type": "address"
        }
      ],
      "name": "isApprovedForAll",
      "outputs": [
        {
          "internalType": "bool",
          "name": "",
          "type": "bool"
        }
      ],
      "stateMutability": "view",
      "type": "function"
    },
    {
      "inputs": [],
      "name": "maxSpinsPerDay",
      "outputs": [
        {
          "internalType": "uint256",
          "name": "",
          "type": "uint256"
        }
      ],
      "stateMutability": "view",
      "type": "function"
    },
    {
      "inputs": [
        {
          "internalType": "address",
          "name": "",
          "type": "address"
        }
      ],
      "name": "nonces",
      "outputs": [
        {
          "internalType": "uint256",
          "name": "",
          "type": "uint256"
        }
      ],
      "stateMutability": "view",
      "type": "function"
    },
    {
      "inputs": [],
      "name": "pause",
      "outputs": [],
      "stateMutability": "nonpayable",
      "type": "function"
    },
    {
      "inputs": [],
      "name": "paused",
      "outputs": [
        {
          "internalType": "bool",
          "name": "",
          "type": "bool"
        }
      ],
      "stateMutability": "view",
      "type": "function"
    },
    {
      "inputs": [
        {
          "internalType": "address",
          "name": "",
          "type": "address"
        }
      ],
      "name": "purchaseInfo",
      "outputs": [
        {
          "internalType": "uint256",
          "name": "total",
          "type": "uint256"
        },
        {
          "internalType": "uint256",
          "name": "perDay",
          "type": "uint256"
        },
        {
          "internalType": "uint256",
          "name": "lastTime",
          "type": "uint256"
        }
      ],
      "stateMutability": "view",
      "type": "function"
    },
    {
      "inputs": [
        {
          "internalType": "bytes32",
          "name": "role",
          "type": "bytes32"
        },
        {
          "internalType": "address",
          "name": "callerConfirmation",
          "type": "address"
        }
      ],
      "name": "renounceRole",
      "outputs": [],
      "stateMutability": "nonpayable",
      "type": "function"
    },
    {
      "inputs": [
        {
          "internalType": "bytes32",
          "name": "role",
          "type": "bytes32"
        },
        {
          "internalType": "address",
          "name": "account",
          "type": "address"
        }
      ],
      "name": "revokeRole",
      "outputs": [],
      "stateMutability": "nonpayable",
      "type": "function"
    },
    {
      "inputs": [
        {
          "internalType": "address",
          "name": "from",
          "type": "address"
        },
        {
          "internalType": "address",
          "name": "to",
          "type": "address"
        },
        {
          "internalType": "uint256[]",
          "name": "ids",
          "type": "uint256[]"
        },
        {
          "internalType": "uint256[]",
          "name": "values",
          "type": "uint256[]"
        },
        {
          "internalType": "bytes",
          "name": "data",
          "type": "bytes"
        }
      ],
      "name": "safeBatchTransferFrom",
      "outputs": [],
      "stateMutability": "nonpayable",
      "type": "function"
    },
    {
      "inputs": [
        {
          "internalType": "address",
          "name": "from",
          "type": "address"
        },
        {
          "internalType": "address",
          "name": "to",
          "type": "address"
        },
        {
          "internalType": "uint256",
          "name": "id",
          "type": "uint256"
        },
        {
          "internalType": "uint256",
          "name": "value",
          "type": "uint256"
        },
        {
          "internalType": "bytes",
          "name": "data",
          "type": "bytes"
        }
      ],
      "name": "safeTransferFrom",
      "outputs": [],
      "stateMutability": "nonpayable",
      "type": "function"
    },
    {
      "inputs": [
        {
          "internalType": "address",
          "name": "_apiSigner",
          "type": "address"
        }
      ],
      "name": "setApiSigner",
      "outputs": [],
      "stateMutability": "nonpayable",
      "type": "function"
    },
    {
      "inputs": [
        {
          "internalType": "address",
          "name": "operator",
          "type": "address"
        },
        {
          "internalType": "bool",
          "name": "approved",
          "type": "bool"
        }
      ],
      "name": "setApprovalForAll",
      "outputs": [],
      "stateMutability": "nonpayable",
      "type": "function"
    },
    {
      "inputs": [
        {
          "internalType": "uint256",
          "name": "_maxSpinsPerDay",
          "type": "uint256"
        }
      ],
      "name": "setMaxSpinsPerDay",
      "outputs": [],
      "stateMutability": "nonpayable",
      "type": "function"
    },
    {
      "inputs": [
        {
          "internalType": "uint256",
          "name": "_spinPriceUsdt",
          "type": "uint256"
        }
      ],
      "name": "setSpinPriceUsdt",
      "outputs": [],
      "stateMutability": "nonpayable",
      "type": "function"
    },
    {
      "inputs": [
        {
          "internalType": "string",
          "name": "newuri",
          "type": "string"
        }
      ],
      "name": "setURI",
      "outputs": [],
      "stateMutability": "nonpayable",
      "type": "function"
    },
    {
      "inputs": [],
      "name": "spinPriceUsdt",
      "outputs": [
        {
          "internalType": "uint256",
          "name": "",
          "type": "uint256"
        }
      ],
      "stateMutability": "view",
      "type": "function"
    },
    {
      "inputs": [
        {
          "internalType": "bytes4",
          "name": "interfaceId",
          "type": "bytes4"
        }
      ],
      "name": "supportsInterface",
      "outputs": [
        {
          "internalType": "bool",
          "name": "",
          "type": "bool"
        }
      ],
      "stateMutability": "view",
      "type": "function"
    },
    {
      "inputs": [],
      "name": "totalSupply",
      "outputs": [
        {
          "internalType": "uint256",
          "name": "",
          "type": "uint256"
        }
      ],
      "stateMutability": "view",
      "type": "function"
    },
    {
      "inputs": [
        {
          "internalType": "uint256",
          "name": "id",
          "type": "uint256"
        }
      ],
      "name": "totalSupply",
      "outputs": [
        {
          "internalType": "uint256",
          "name": "",
          "type": "uint256"
        }
      ],
      "stateMutability": "view",
      "type": "function"
    },
    {
      "inputs": [],
      "name": "unpause",
      "outputs": [],
      "stateMutability": "nonpayable",
      "type": "function"
    },
    {
      "inputs": [
        {
          "internalType": "uint256",
          "name": "",
          "type": "uint256"
        }
      ],
      "name": "uri",
      "outputs": [
        {
          "internalType": "string",
          "name": "",
          "type": "string"
        }
      ],
      "stateMutability": "view",
      "type": "function"
    },
    {
      "inputs": [],
      "name": "usdtContract",
      "outputs": [
        {
          "internalType": "contract IERC20",
          "name": "",
          "type": "address"
        }
      ],
      "stateMutability": "view",
      "type": "function"
    }
  ],
  "transactionHash": "0x6b2b76d25476a047a1bc232318ca3bc19ab97596fb162a8a7d25b36a1c6deb9c",
  "args": [],
  "numDeployments": 1,
  "solcInputHash": "08d5238fc8c0446e53de6747d72bf9a9",
  "bytecode": "0x6080604052600a6003553480156200001657600080fd5b506200002162000027565b620000db565b7ff0c57e16840df040f15088dc2f81fe391c3923bec73e23a9662efc9c229c6a00805468010000000000000000900460ff1615620000785760405163f92ee8a960e01b815260040160405180910390fd5b80546001600160401b0390811614620000d85780546001600160401b0319166001600160401b0390811782556040519081527fc7f505b2f371ae2175ee4913f4499e1f2633a7b5936321eed1cdaeb6115181d29060200160405180910390a15b50565b61340b80620000eb6000396000f3fe608060405234801561001057600080fd5b506004361061027e5760003560e01c80635c975abb1161015c578063a217fddf116100ce578063d539139311610087578063d53913931461064c578063d547741f14610673578063d7c41c7914610686578063e63ab1e914610699578063e985e9c5146106ae578063f242432a146106c157600080fd5b8063a217fddf146104a9578063a22cb465146105d7578063b1d9b521146105ea578063bd85b039146105fd578063c1c1d2181461063c578063c54e44eb1461064457600080fd5b80637f345710116101205780637f345710146105275780638456cb591461054e57806384b0196e146105565780638d8ee1fb1461057157806391d14854146105bb578063950d7a7e146105ce57600080fd5b80635c975abb146104b15780635fdc6281146104c957806361150923146104d357806368e3daca146104fe5780637ecebe001461050757600080fd5b80632eb2c2d6116101f55780634918cf6a116101b95780634918cf6a146104045780634e1273f41461040c5780634f558e791461042c578063532b76691461046d57806355eaefce146104805780635884604d146104a957600080fd5b80632eb2c2d6146103b05780632f2ff15d146103c357806336568abe146103d65780633f4ba83a146103e9578063463d8a2c146103f157600080fd5b80630dd3fd03116102475780630dd3fd03146103075780630e89341c1461031a57806318160ddd1461033a57806321d04be214610361578063248a9ca3146103745780632d0335ab1461038757600080fd5b8062fdd58e1461028357806301ffc9a7146102a957806302fe5305146102cc5780630b984995146102e15780630cf4cad4146102f4575b600080fd5b61029661029136600461293d565b6106d4565b6040519081526020015b60405180910390f35b6102bc6102b736600461297f565b61070b565b60405190151581526020016102a0565b6102df6102da366004612a3b565b610716565b005b6102df6102ef366004612a8c565b61074d565b610296610302366004612a8c565b6107f7565b6102df610315366004612aa9565b610820565b61032d610328366004612aa9565b610b1e565b6040516102a09190612b12565b7f4a593662ee04d27b6a00ebb31be7fe0c102c2ade82a7c5d764f2df05dc4e280154610296565b6102df61036f366004612b45565b610be3565b610296610382366004612aa9565b610c0c565b610296610395366004612a8c565b6001600160a01b031660009081526006602052604090205490565b6102df6103be366004612c94565b610c2e565b6102df6103d1366004612d42565b610c8d565b6102df6103e4366004612d42565b610caf565b6102df610ce7565b6102df6103ff366004612aa9565b610d0a565b610296600381565b61041f61041a366004612d72565b610d8c565b6040516102a09190612e70565b6102bc61043a366004612aa9565b60009081527f4a593662ee04d27b6a00ebb31be7fe0c102c2ade82a7c5d764f2df05dc4e28006020526040902054151590565b6102df61047b366004612aa9565b610e59565b61029661048e366004612a8c565b6001600160a01b031660009081526005602052604090205490565b610296600081565b6000805160206133b68339815191525460ff166102bc565b6102966201518081565b6001546104e6906001600160a01b031681565b6040516001600160a01b0390911681526020016102a0565b61029660025481565b610296610515366004612a8c565b60066020526000908152604090205481565b6102967f7804d923f43a17d325d77e781528e0793b2edd9890ab45fc64efd7b4b427744c81565b6102df610edc565b61055e610efc565b6040516102a09796959493929190612e83565b6105a061057f366004612a8c565b60056020526000908152604090208054600182015460029092015490919083565b604080519384526020840192909252908201526060016102a0565b6102bc6105c9366004612d42565b610fa8565b61029660035481565b6102df6105e5366004612f01565b610fe0565b6102bc6105f8366004612a8c565b610feb565b61029661060b366004612aa9565b60009081527f4a593662ee04d27b6a00ebb31be7fe0c102c2ade82a7c5d764f2df05dc4e2800602052604090205490565b610296600281565b610296600181565b6102967f9f2df0fed2c77648de5860a4cc508cd0818c85b8b8a1ab4ceeef8d981c8956a681565b6102df610681366004612d42565b611021565b6102df610694366004612f2f565b61103d565b61029660008051602061335683398151915281565b6102bc6106bc366004612f9d565b61136f565b6102df6106cf366004612fcb565b6113bc565b6000818152600080516020613376833981519152602090815260408083206001600160a01b03861684529091529020545b92915050565b60006107058261141b565b7f7804d923f43a17d325d77e781528e0793b2edd9890ab45fc64efd7b4b427744c61074081611440565b6107498261144a565b5050565b600061075881611440565b6001600160a01b0382166107a1576040516356af9c8160e01b815260206004820152600a6024820152692fb0b834a9b4b3b732b960b11b60448201526064015b60405180910390fd5b600080546001600160a01b0319166001600160a01b0384169081179091556040519081527f3650804d6f777e7b5a4ca4a047fcef31c1327c3a01f1e4f7e5a0ceb8a453ccf6906020015b60405180910390a15050565b6001600160a01b038116600090815260056020526040812060010154600354610705919061304a565b610828611484565b60035481111561086c57604051630b56dacb60e31b815260206004820152600e60248201526d6d61785370696e7350657244617960901b6044820152606401610798565b61087533610feb565b6108b357604051630b56dacb60e31b815260206004820152600e60248201526d6d61785370696e7350657244617960901b6044820152606401610798565b600081116108f35760405163b79e5dbb60e01b815260206004820152600c60248201526b5f616d6f756e745370696e7360a01b6044820152606401610798565b600060025482610903919061305d565b600154604051636eb1769f60e11b815233600482015230602482015291925082916001600160a01b039091169063dd62ed3e90604401602060405180830381865afa158015610956573d6000803e3d6000fd5b505050506040513d601f19601f8201168201806040525081019061097a9190613074565b1015610999576040516341995fbf60e01b815260040160405180910390fd5b6001546040516370a0823160e01b815233600482015282916001600160a01b0316906370a0823190602401602060405180830381865afa1580156109e1573d6000803e3d6000fd5b505050506040513d601f19601f82011682018060405250810190610a059190613074565b1015610a24576040516305330f7360e01b815260040160405180910390fd5b336000908152600560205260409020600201546201518090610a46904261304a565b10610a5f57336000908152600560205260408120600101555b3360009081526005602052604081206001018054849290610a8190849061308d565b90915550503360009081526005602052604081208054849290610aa590849061308d565b909155505033600081815260056020526040902042600290910155600454600154610adf926001600160a01b0391821692909116846114b7565b604080518281526020810184905233917f7daa30fd9fab81b335f8aa24703b0ad7b093674a992ebb4b5ff6f62f470a839f910160405180910390a25050565b7f88be536d5240c274a3b1d3a1be54482fd9caa294f08c62a7cde569f49a3c4502805460609160008051602061337683398151915291610b5d906130a0565b80601f0160208091040260200160405190810160405280929190818152602001828054610b89906130a0565b8015610bd65780601f10610bab57610100808354040283529160200191610bd6565b820191906000526020600020905b815481529060010190602001808311610bb957829003601f168201915b5050505050915050919050565b610beb611484565b610bf8868686858561151e565b610c0486868686611658565b505050505050565b6000908152600080516020613396833981519152602052604090206001015490565b336001600160a01b0386168114801590610c4f5750610c4d868261136f565b155b15610c805760405163711bec9160e11b81526001600160a01b03808316600483015287166024820152604401610798565b610c048686868686611759565b610c9682610c0c565b610c9f81611440565b610ca983836117c0565b50505050565b6001600160a01b0381163314610cd85760405163334bd91960e11b815260040160405180910390fd5b610ce28282611865565b505050565b600080516020613356833981519152610cff81611440565b610d076118e1565b50565b6000610d1581611440565b81600003610d575760405163b2b81a1d60e01b815260206004820152600e60248201526d17dcdc1a5b941c9a58d9555cd91d60921b6044820152606401610798565b60028290556040518281527f52bb28f484b2f4577ba36f927749a8192ab7e1050dbf4aff58516e77232780b7906020016107eb565b60608151835114610dbd5781518351604051635b05999160e01b815260048101929092526024820152604401610798565b6000835167ffffffffffffffff811115610dd957610dd961299c565b604051908082528060200260200182016040528015610e02578160200160208202803683370190505b50905060005b8451811015610e5157602080820286010151610e2c906020808402870101516106d4565b828281518110610e3e57610e3e6130da565b6020908102919091010152600101610e08565b509392505050565b6000610e6481611440565b81600003610ea75760405163b2b81a1d60e01b815260206004820152600f60248201526e5f6d61785370696e7350657244617960881b6044820152606401610798565b60038290556040518281527f52769f59e5135aa8de753702f209c503f18f4ff2ad89e776c4b7284610435e30906020016107eb565b600080516020613356833981519152610ef481611440565b610d07611941565b600060608082808083816000805160206133368339815191528054909150158015610f2957506001810154155b610f6d5760405162461bcd60e51b81526020600482015260156024820152741152540dcc4c8e88155b9a5b9a5d1a585b1a5e9959605a1b6044820152606401610798565b610f7561198a565b610f7d611a4d565b60408051600080825260208201909252600f60f81b9c939b5091995046985030975095509350915050565b6000918252600080516020613396833981519152602090815260408084206001600160a01b0393909316845291905290205460ff1690565b610749338383611a8c565b6003546001600160a01b03821660009081526005602052604081206001015490911161101957506000919050565b506001919050565b61102a82610c0c565b61103381611440565b610ca98383611865565b7ff0c57e16840df040f15088dc2f81fe391c3923bec73e23a9662efc9c229c6a008054600160401b810460ff16159067ffffffffffffffff166000811580156110835750825b905060008267ffffffffffffffff1660011480156110a05750303b155b9050811580156110ae575080155b156110cc5760405163f92ee8a960e01b815260040160405180910390fd5b845467ffffffffffffffff1916600117855583156110f657845460ff60401b1916600160401b1785555b61110e60405180602001604052806000815250611b34565b611116611b45565b61111e611b4d565b611126611b45565b6111716040518060400160405280601081526020016f2bb7b936b330b9329029b834b73732b960811b815250604051806040016040528060018152602001603160f81b815250611b5d565b6001600160a01b038b166111b1576040516356af9c8160e01b81526020600482015260066024820152652fb0b236b4b760d11b6044820152606401610798565b6001600160a01b038a166111f8576040516356af9c8160e01b815260206004820152600d60248201526c17dd5cd91d10dbdb9d1c9858dd609a1b6044820152606401610798565b6001600160a01b038916611241576040516356af9c8160e01b815260206004820152600f60248201526e17dd1c99585cdd5c9e55d85b1b195d608a1b6044820152606401610798565b6001600160a01b038816611285576040516356af9c8160e01b815260206004820152600a6024820152692fb0b834a9b4b3b732b960b11b6044820152606401610798565b61129060008c6117c0565b506112a96000805160206133568339815191528c6117c0565b506112d47f9f2df0fed2c77648de5860a4cc508cd0818c85b8b8a1ab4ceeef8d981c8956a68c6117c0565b50600180546001600160a01b03808d166001600160a01b0319928316179092556002899055600480548c841690831617905560008054928b16929091169190911790556003869055831561136257845460ff60401b19168555604051600181527fc7f505b2f371ae2175ee4913f4499e1f2633a7b5936321eed1cdaeb6115181d29060200160405180910390a15b5050505050505050505050565b6001600160a01b0391821660009081527f88be536d5240c274a3b1d3a1be54482fd9caa294f08c62a7cde569f49a3c45016020908152604080832093909416825291909152205460ff1690565b336001600160a01b03861681148015906113dd57506113db868261136f565b155b1561140e5760405163711bec9160e11b81526001600160a01b03808316600483015287166024820152604401610798565b610c048686868686611b6f565b60006001600160e01b03198216637965db0b60e01b1480610705575061070582611bfd565b610d078133611c4d565b6000805160206133768339815191527f88be536d5240c274a3b1d3a1be54482fd9caa294f08c62a7cde569f49a3c4502610ce28382613138565b6000805160206133b68339815191525460ff16156114b55760405163d93c066560e01b815260040160405180910390fd5b565b6040516001600160a01b038481166024830152838116604483015260648201839052610ca99186918216906323b872dd906084015b604051602081830303815290604052915060e01b6020820180516001600160e01b038381831617835250505050611c86565b6001600160a01b03851660008181526006602090815260408083205481517f815c5c465cd08e858c0032a3079edf9b5e5c46182557d4a5688d7ed9989f57f69381019390935290820193909352606081018790526080810186905260a081018390523360c08201526115a89060e00160405160208183030381529060405280519060200120611ce9565b600054604080516020601f88018190048102820181019092528681529293506001600160a01b03909116916115fa918491908890889081908401838280828437600092019190915250611d1692505050565b6001600160a01b03161461162157604051638baa579f60e01b815260040160405180910390fd5b6001600160a01b038716600090815260066020526040812080546001929061164a90849061308d565b909155505050505050505050565b600082116116935760405163b79e5dbb60e01b815260206004820152600760248201526617d85b5bdd5b9d60ca1b6044820152606401610798565b60038311156116d057604051630943ce0360e31b815260206004820152600860248201526717dd1bdad95b925960c21b6044820152606401610798565b600183036117035760006116e783620f424061305d565b600154909150611701906001600160a01b03168683611d40565b505b61170f84848484611d71565b60408051848152602081018490526001600160a01b038616917fe74e5c9d4ac1fc33412485f18c159a0a391efe287ab3fd271123f30e6bacf4e3910160405180910390a250505050565b6001600160a01b03841661178357604051632bfa23e760e11b815260006004820152602401610798565b6001600160a01b0385166117ac57604051626a0d4560e21b815260006004820152602401610798565b6117b98585858585611dca565b5050505050565b60006000805160206133968339815191526117db8484610fa8565b61185b576000848152602082815260408083206001600160a01b03871684529091529020805460ff191660011790556118113390565b6001600160a01b0316836001600160a01b0316857f2f8788117e7eff1d82e926ec794901d17c78024a50270940304540a733656f0d60405160405180910390a46001915050610705565b6000915050610705565b60006000805160206133968339815191526118808484610fa8565b1561185b576000848152602082815260408083206001600160a01b0387168085529252808320805460ff1916905551339287917ff6391f5c32d9c69d2a47ea670b442974b53935d1edc7fd64eb21e047a839171b9190a46001915050610705565b6118e9611e1d565b6000805160206133b6833981519152805460ff191681557f5db9ee0a495bf2e6ff9c91a7834c1ba4fdd244a5e8aa4e537bd38aeae4b073aa335b6040516001600160a01b03909116815260200160405180910390a150565b611949611484565b6000805160206133b6833981519152805460ff191660011781557f62e78cea01bee320cd4e420270b5ea74000d11b0c9f74754ebdbfc544b05a25833611923565b7fa16a46d94261c7517cc8ff89f61c0ce93598e3c849801011dee649a6a557d1028054606091600080516020613336833981519152916119c9906130a0565b80601f01602080910402602001604051908101604052809291908181526020018280546119f5906130a0565b8015611a425780601f10611a1757610100808354040283529160200191611a42565b820191906000526020600020905b815481529060010190602001808311611a2557829003601f168201915b505050505091505090565b7fa16a46d94261c7517cc8ff89f61c0ce93598e3c849801011dee649a6a557d1038054606091600080516020613336833981519152916119c9906130a0565b6000805160206133768339815191526001600160a01b038316611ac45760405162ced3e160e81b815260006004820152602401610798565b6001600160a01b038481166000818152600184016020908152604080832094881680845294825291829020805460ff191687151590811790915591519182527f17307eab39ab6107e8899845ad3d59bd9653f200f220920489ca2b5937696c31910160405180910390a350505050565b611b3c611e4d565b610d0781611e96565b6114b5611e4d565b611b55611e4d565b6114b5611ea7565b611b65611e4d565b6107498282611ec8565b6001600160a01b038416611b9957604051632bfa23e760e11b815260006004820152602401610798565b6001600160a01b038516611bc257604051626a0d4560e21b815260006004820152602401610798565b60408051600180825260208201869052818301908152606082018590526080820190925290611bf48787848487611dca565b50505050505050565b60006001600160e01b03198216636cdb3d1360e11b1480611c2e57506001600160e01b031982166303a24d0760e21b145b8061070557506301ffc9a760e01b6001600160e01b0319831614610705565b611c578282610fa8565b6107495760405163e2517d3f60e01b81526001600160a01b038216600482015260248101839052604401610798565b6000611c9b6001600160a01b03841683611f29565b90508051600014158015611cc0575080806020019051810190611cbe91906131f8565b155b15610ce257604051635274afe760e01b81526001600160a01b0384166004820152602401610798565b6000610705611cf6611f3e565b8360405161190160f01b8152600281019290925260228201526042902090565b600080600080611d268686611f4d565b925092509250611d368282611f9a565b5090949350505050565b6040516001600160a01b03838116602483015260448201839052610ce291859182169063a9059cbb906064016114ec565b6001600160a01b038416611d9b57604051632bfa23e760e11b815260006004820152602401610798565b60408051600180825260208201869052818301908152606082018590526080820190925290610c046000878484875b611dd685858585612053565b6001600160a01b038416156117b95782513390600103611e0f5760208481015190840151611e0883898985858961205f565b5050610c04565b610c04818787878787612183565b6000805160206133b68339815191525460ff166114b557604051638dfc202b60e01b815260040160405180910390fd5b7ff0c57e16840df040f15088dc2f81fe391c3923bec73e23a9662efc9c229c6a0054600160401b900460ff166114b557604051631afcd79f60e31b815260040160405180910390fd5b611e9e611e4d565b610d078161144a565b611eaf611e4d565b6000805160206133b6833981519152805460ff19169055565b611ed0611e4d565b6000805160206133368339815191527fa16a46d94261c7517cc8ff89f61c0ce93598e3c849801011dee649a6a557d102611f0a8482613138565b5060038101611f198382613138565b5060008082556001909101555050565b6060611f378383600061226c565b9392505050565b6000611f48612309565b905090565b60008060008351604103611f875760208401516040850151606086015160001a611f798882858561237d565b955095509550505050611f93565b50508151600091506002905b9250925092565b6000826003811115611fae57611fae613215565b03611fb7575050565b6001826003811115611fcb57611fcb613215565b03611fe95760405163f645eedf60e01b815260040160405180910390fd5b6002826003811115611ffd57611ffd613215565b0361201e5760405163fce698f760e01b815260048101829052602401610798565b600382600381111561203257612032613215565b03610749576040516335e2f38360e21b815260048101829052602401610798565b610ca98484848461244c565b6001600160a01b0384163b15610c045760405163f23a6e6160e01b81526001600160a01b0385169063f23a6e61906120a3908990899088908890889060040161322b565b6020604051808303816000875af19250505080156120de575060408051601f3d908101601f191682019092526120db91810190613270565b60015b612147573d80801561210c576040519150601f19603f3d011682016040523d82523d6000602084013e612111565b606091505b50805160000361213f57604051632bfa23e760e11b81526001600160a01b0386166004820152602401610798565b805181602001fd5b6001600160e01b0319811663f23a6e6160e01b14611bf457604051632bfa23e760e11b81526001600160a01b0386166004820152602401610798565b6001600160a01b0384163b15610c045760405163bc197c8160e01b81526001600160a01b0385169063bc197c81906121c7908990899088908890889060040161328d565b6020604051808303816000875af1925050508015612202575060408051601f3d908101601f191682019092526121ff91810190613270565b60015b612230573d80801561210c576040519150601f19603f3d011682016040523d82523d6000602084013e612111565b6001600160e01b0319811663bc197c8160e01b14611bf457604051632bfa23e760e11b81526001600160a01b0386166004820152602401610798565b6060814710156122915760405163cd78605960e01b8152306004820152602401610798565b600080856001600160a01b031684866040516122ad91906132eb565b60006040518083038185875af1925050503d80600081146122ea576040519150601f19603f3d011682016040523d82523d6000602084013e6122ef565b606091505b50915091506122ff8683836125bc565b9695505050505050565b60007f8b73c3c69bb8fe3d512ecc4cf759cc79239f7b179b0ffacaa9a75d522b39400f612334612618565b61233c612682565b60408051602081019490945283019190915260608201524660808201523060a082015260c00160405160208183030381529060405280519060200120905090565b600080807f7fffffffffffffffffffffffffffffff5d576e7357a4501ddfe92f46681b20a08411156123b85750600091506003905082612442565b604080516000808252602082018084528a905260ff891692820192909252606081018790526080810186905260019060a0016020604051602081039080840390855afa15801561240c573d6000803e3d6000fd5b5050604051601f1901519150506001600160a01b03811661243857506000925060019150829050612442565b9250600091508190505b9450945094915050565b7f4a593662ee04d27b6a00ebb31be7fe0c102c2ade82a7c5d764f2df05dc4e2800612479858585856126c6565b6001600160a01b038516612527576000805b845181101561250b5760008482815181106124a8576124a86130da565b60200260200101519050808460000160008885815181106124cb576124cb6130da565b6020026020010151815260200190815260200160002060008282546124f0919061308d565b909155506125009050818461308d565b92505060010161248b565b5080826001016000828254612520919061308d565b9091555050505b6001600160a01b0384166117b9576000805b84518110156125a8576000848281518110612556576125566130da565b6020026020010151905080846000016000888581518110612579576125796130da565b602090810291909101810151825281019190915260400160002080549190910390559190910190600101612539565b506001820180549190910390555050505050565b6060826125d1576125cc826126da565b611f37565b81511580156125e857506001600160a01b0384163b155b1561261157604051639996b31560e01b81526001600160a01b0385166004820152602401610798565b5080611f37565b60006000805160206133368339815191528161263261198a565b80519091501561264a57805160209091012092915050565b81548015612659579392505050565b7fc5d2460186f7233c927e7db2dcc703c0e500b653ca82273b7bfad8045d85a470935050505090565b60006000805160206133368339815191528161269c611a4d565b8051909150156126b457805160209091012092915050565b60018201548015612659579392505050565b6126ce611484565b610ca984848484612703565b8051156126ea5780518082602001fd5b604051630a12f52160e11b815260040160405180910390fd5b8051825160008051602061337683398151915291146127425782518251604051635b05999160e01b815260048101929092526024820152604401610798565b3360005b8451811015612848576020818102868101820151908601909101516001600160a01b038916156127f9576000828152602086815260408083206001600160a01b038d168452909152902054818110156127d2576040516303dee4c560e01b81526001600160a01b038b166004820152602481018290526044810183905260648101849052608401610798565b6000838152602087815260408083206001600160a01b038e16845290915290209082900390555b6001600160a01b0388161561283e576000828152602086815260408083206001600160a01b038c1684529091528120805483929061283890849061308d565b90915550505b5050600101612746565b5083516001036128c95760208401516000906020850151909150866001600160a01b0316886001600160a01b0316846001600160a01b03167fc3d58168c5ae7397731d063d5bbf3d657854427343f4c083240f7aacaa2d0f6285856040516128ba929190918252602082015260400190565b60405180910390a45050610c04565b846001600160a01b0316866001600160a01b0316826001600160a01b03167f4a39dc06d4c0dbc64b70af90fd698a233a518aa5d07e595d983b8c0526c8f7fb8787604051612918929190613307565b60405180910390a4505050505050565b6001600160a01b0381168114610d0757600080fd5b6000806040838503121561295057600080fd5b823561295b81612928565b946020939093013593505050565b6001600160e01b031981168114610d0757600080fd5b60006020828403121561299157600080fd5b8135611f3781612969565b634e487b7160e01b600052604160045260246000fd5b604051601f8201601f1916810167ffffffffffffffff811182821017156129db576129db61299c565b604052919050565b600067ffffffffffffffff8311156129fd576129fd61299c565b612a10601f8401601f19166020016129b2565b9050828152838383011115612a2457600080fd5b828260208301376000602084830101529392505050565b600060208284031215612a4d57600080fd5b813567ffffffffffffffff811115612a6457600080fd5b8201601f81018413612a7557600080fd5b612a84848235602084016129e3565b949350505050565b600060208284031215612a9e57600080fd5b8135611f3781612928565b600060208284031215612abb57600080fd5b5035919050565b60005b83811015612add578181015183820152602001612ac5565b50506000910152565b60008151808452612afe816020860160208601612ac2565b601f01601f19169290920160200192915050565b602081526000611f376020830184612ae6565b600082601f830112612b3657600080fd5b611f37838335602085016129e3565b60008060008060008060a08789031215612b5e57600080fd5b8635612b6981612928565b95506020870135945060408701359350606087013567ffffffffffffffff80821115612b9457600080fd5b612ba08a838b01612b25565b94506080890135915080821115612bb657600080fd5b818901915089601f830112612bca57600080fd5b813581811115612bd957600080fd5b8a6020828501011115612beb57600080fd5b6020830194508093505050509295509295509295565b600067ffffffffffffffff821115612c1b57612c1b61299c565b5060051b60200190565b600082601f830112612c3657600080fd5b81356020612c4b612c4683612c01565b6129b2565b8083825260208201915060208460051b870101935086841115612c6d57600080fd5b602086015b84811015612c895780358352918301918301612c72565b509695505050505050565b600080600080600060a08688031215612cac57600080fd5b8535612cb781612928565b94506020860135612cc781612928565b9350604086013567ffffffffffffffff80821115612ce457600080fd5b612cf089838a01612c25565b94506060880135915080821115612d0657600080fd5b612d1289838a01612c25565b93506080880135915080821115612d2857600080fd5b50612d3588828901612b25565b9150509295509295909350565b60008060408385031215612d5557600080fd5b823591506020830135612d6781612928565b809150509250929050565b60008060408385031215612d8557600080fd5b823567ffffffffffffffff80821115612d9d57600080fd5b818501915085601f830112612db157600080fd5b81356020612dc1612c4683612c01565b82815260059290921b84018101918181019089841115612de057600080fd5b948201945b83861015612e07578535612df881612928565b82529482019490820190612de5565b96505086013592505080821115612e1d57600080fd5b50612e2a85828601612c25565b9150509250929050565b60008151808452602080850194506020840160005b83811015612e6557815187529582019590820190600101612e49565b509495945050505050565b602081526000611f376020830184612e34565b60ff60f81b8816815260e060208201526000612ea260e0830189612ae6565b8281036040840152612eb48189612ae6565b606084018890526001600160a01b038716608085015260a0840186905283810360c08501529050612ee58185612e34565b9a9950505050505050505050565b8015158114610d0757600080fd5b60008060408385031215612f1457600080fd5b8235612f1f81612928565b91506020830135612d6781612ef3565b60008060008060008060c08789031215612f4857600080fd5b8635612f5381612928565b95506020870135612f6381612928565b94506040870135612f7381612928565b93506060870135612f8381612928565b9598949750929560808101359460a0909101359350915050565b60008060408385031215612fb057600080fd5b8235612fbb81612928565b91506020830135612d6781612928565b600080600080600060a08688031215612fe357600080fd5b8535612fee81612928565b94506020860135612ffe81612928565b93506040860135925060608601359150608086013567ffffffffffffffff81111561302857600080fd5b612d3588828901612b25565b634e487b7160e01b600052601160045260246000fd5b8181038181111561070557610705613034565b808202811582820484141761070557610705613034565b60006020828403121561308657600080fd5b5051919050565b8082018082111561070557610705613034565b600181811c908216806130b457607f821691505b6020821081036130d457634e487b7160e01b600052602260045260246000fd5b50919050565b634e487b7160e01b600052603260045260246000fd5b601f821115610ce2576000816000526020600020601f850160051c810160208610156131195750805b601f850160051c820191505b81811015610c0457828155600101613125565b815167ffffffffffffffff8111156131525761315261299c565b6131668161316084546130a0565b846130f0565b602080601f83116001811461319b57600084156131835750858301515b600019600386901b1c1916600185901b178555610c04565b600085815260208120601f198616915b828110156131ca578886015182559484019460019091019084016131ab565b50858210156131e85787850151600019600388901b60f8161c191681555b5050505050600190811b01905550565b60006020828403121561320a57600080fd5b8151611f3781612ef3565b634e487b7160e01b600052602160045260246000fd5b6001600160a01b03868116825285166020820152604081018490526060810183905260a06080820181905260009061326590830184612ae6565b979650505050505050565b60006020828403121561328257600080fd5b8151611f3781612969565b6001600160a01b0386811682528516602082015260a0604082018190526000906132b990830186612e34565b82810360608401526132cb8186612e34565b905082810360808401526132df8185612ae6565b98975050505050505050565b600082516132fd818460208701612ac2565b9190910192915050565b60408152600061331a6040830185612e34565b828103602084015261332c8185612e34565b9594505050505056fea16a46d94261c7517cc8ff89f61c0ce93598e3c849801011dee649a6a557d10065d7a28e3265b37a6474929f336521b332c1681b933f6cb9f3376673440d862a88be536d5240c274a3b1d3a1be54482fd9caa294f08c62a7cde569f49a3c450002dd7bc7dec4dceedda775e58dd541e08a116c6c53815c0bd028192f7b626800cd5ed15c6e187e77e9aee88184c21f4f2182ab5827cb3b7e07fbedcd63f03300a264697066735822122094018b8d3b01260dae1ecf553a2b55f2a8da2fa2186137f280cd03107194e31d64736f6c63430008170033",
  "devdoc": {
    "errors": {
      "AccessControlBadConfirmation()": [
        {
          "details": "The caller of a function is not the expected one. NOTE: Don't confuse with {AccessControlUnauthorizedAccount}."
        }
      ],
      "AccessControlUnauthorizedAccount(address,bytes32)": [
        {
          "details": "The `account` is missing a role."
        }
      ],
      "AddressEmptyCode(address)": [
        {
          "details": "There's no code at `target` (it is not a contract)."
        }
      ],
      "AddressInsufficientBalance(address)": [
        {
          "details": "The ETH balance of the account is not enough to perform the operation."
        }
      ],
      "ECDSAInvalidSignature()": [
        {
          "details": "The signature derives the `address(0)`."
        }
      ],
      "ECDSAInvalidSignatureLength(uint256)": [
        {
          "details": "The signature has an invalid length."
        }
      ],
      "ECDSAInvalidSignatureS(bytes32)": [
        {
          "details": "The signature has an S value that is in the upper half order."
        }
      ],
      "ERC1155InsufficientBalance(address,uint256,uint256,uint256)": [
        {
          "details": "Indicates an error related to the current `balance` of a `sender`. Used in transfers.",
          "params": {
            "balance": "Current balance for the interacting account.",
            "needed": "Minimum amount required to perform a transfer.",
            "sender": "Address whose tokens are being transferred.",
            "tokenId": "Identifier number of a token."
          }
        }
      ],
      "ERC1155InvalidApprover(address)": [
        {
          "details": "Indicates a failure with the `approver` of a token to be approved. Used in approvals.",
          "params": {
            "approver": "Address initiating an approval operation."
          }
        }
      ],
      "ERC1155InvalidArrayLength(uint256,uint256)": [
        {
          "details": "Indicates an array length mismatch between ids and values in a safeBatchTransferFrom operation. Used in batch transfers.",
          "params": {
            "idsLength": "Length of the array of token identifiers",
            "valuesLength": "Length of the array of token amounts"
          }
        }
      ],
      "ERC1155InvalidOperator(address)": [
        {
          "details": "Indicates a failure with the `operator` to be approved. Used in approvals.",
          "params": {
            "operator": "Address that may be allowed to operate on tokens without being their owner."
          }
        }
      ],
      "ERC1155InvalidReceiver(address)": [
        {
          "details": "Indicates a failure with the token `receiver`. Used in transfers.",
          "params": {
            "receiver": "Address to which tokens are being transferred."
          }
        }
      ],
      "ERC1155InvalidSender(address)": [
        {
          "details": "Indicates a failure with the token `sender`. Used in transfers.",
          "params": {
            "sender": "Address whose tokens are being transferred."
          }
        }
      ],
      "ERC1155MissingApprovalForAll(address,address)": [
        {
          "details": "Indicates a failure with the `operator`s approval. Used in transfers.",
          "params": {
            "operator": "Address that may be allowed to operate on tokens without being their owner.",
            "owner": "Address of the current owner of a token."
          }
        }
      ],
      "EnforcedPause()": [
        {
          "details": "The operation failed because the contract is paused."
        }
      ],
      "ExpectedPause()": [
        {
          "details": "The operation failed because the contract is not paused."
        }
      ],
      "FailedInnerCall()": [
        {
          "details": "A call to an address target failed. The target may have reverted."
        }
      ],
      "InvalidInitialization()": [
        {
          "details": "The contract is already initialized."
        }
      ],
      "NotInitializing()": [
        {
          "details": "The contract is not initializing."
        }
      ],
      "SafeERC20FailedOperation(address)": [
        {
          "details": "An operation with an ERC20 token failed."
        }
      ]
    },
    "events": {
      "ApprovalForAll(address,address,bool)": {
        "details": "Emitted when `account` grants or revokes permission to `operator` to transfer their tokens, according to `approved`."
      },
      "EIP712DomainChanged()": {
        "details": "MAY be emitted to signal that the domain could have changed."
      },
      "Initialized(uint64)": {
        "details": "Triggered when the contract has been initialized or reinitialized."
      },
      "Paused(address)": {
        "details": "Emitted when the pause is triggered by `account`."
      },
      "RoleAdminChanged(bytes32,bytes32,bytes32)": {
        "details": "Emitted when `newAdminRole` is set as ``role``'s admin role, replacing `previousAdminRole` `DEFAULT_ADMIN_ROLE` is the starting admin for all roles, despite {RoleAdminChanged} not being emitted signaling this."
      },
      "RoleGranted(bytes32,address,address)": {
        "details": "Emitted when `account` is granted `role`. `sender` is the account that originated the contract call, an admin role bearer except when using {AccessControl-_setupRole}."
      },
      "RoleRevoked(bytes32,address,address)": {
        "details": "Emitted when `account` is revoked `role`. `sender` is the account that originated the contract call:   - if using `revokeRole`, it is the admin role bearer   - if using `renounceRole`, it is the role bearer (i.e. `account`)"
      },
      "TransferBatch(address,address,address,uint256[],uint256[])": {
        "details": "Equivalent to multiple {TransferSingle} events, where `operator`, `from` and `to` are the same for all transfers."
      },
      "TransferSingle(address,address,address,uint256,uint256)": {
        "details": "Emitted when `value` amount of tokens of type `id` are transferred from `from` to `to` by `operator`."
      },
      "URI(string,uint256)": {
        "details": "Emitted when the URI for token type `id` changes to `value`, if it is a non-programmatic URI. If an {URI} event was emitted for `id`, the standard https://eips.ethereum.org/EIPS/eip-1155#metadata-extensions[guarantees] that `value` will equal the value returned by {IERC1155MetadataURI-uri}."
      },
      "Unpaused(address)": {
        "details": "Emitted when the pause is lifted by `account`."
      }
    },
    "kind": "dev",
    "methods": {
      "balanceOf(address,uint256)": {
        "details": "See {IERC1155-balanceOf}."
      },
      "balanceOfBatch(address[],uint256[])": {
        "details": "See {IERC1155-balanceOfBatch}. Requirements: - `accounts` and `ids` must have the same length."
      },
      "buySpins(uint256)": {
        "details": "Buy spins with USDT.",
        "params": {
          "_amountSpins": "The amount of spins to buy."
        }
      },
      "claim(address,uint256,uint256,bytes,bytes)": {
        "details": "Claim tokens.",
        "params": {
          "_amount": "The amount of tokens to claim.",
          "_data": "Additional data.",
          "_signature": "The signature to verify the claim.",
          "_to": "The account to claim tokens to.",
          "_tokenId": "The token ID to claim."
        }
      },
      "constructor": {
        "custom:oz-upgrades-unsafe-allow": "constructor"
      },
      "eip712Domain()": {
        "details": "See {IERC-5267}."
      },
      "exists(uint256)": {
        "details": "Indicates whether any token exist with a given id, or not."
      },
      "getRoleAdmin(bytes32)": {
        "details": "Returns the admin role that controls `role`. See {grantRole} and {revokeRole}. To change a role's admin, use {_setRoleAdmin}."
      },
      "grantRole(bytes32,address)": {
        "details": "Grants `role` to `account`. If `account` had not been already granted `role`, emits a {RoleGranted} event. Requirements: - the caller must have ``role``'s admin role. May emit a {RoleGranted} event."
      },
      "hasRole(bytes32,address)": {
        "details": "Returns `true` if `account` has been granted `role`."
      },
      "initialize(address,address,address,address,uint256,uint256)": {
        "details": "Initialize the contract.",
        "params": {
          "_admin": "The admin address.",
          "_apiSigner": "The API wallet address.",
          "_maxSpinsPerDay": "The maximum amount of spins a user can buy per day.",
          "_spinPriceUsdt": "The price of a single spin in USDT.",
          "_treasuryWallet": "The wallet that all incoming USDT will be transfered to.",
          "_usdtContract": "The USDT contract address."
        }
      },
      "isApprovedForAll(address,address)": {
        "details": "See {IERC1155-isApprovedForAll}."
      },
      "paused()": {
        "details": "Returns true if the contract is paused, and false otherwise."
      },
      "renounceRole(bytes32,address)": {
        "details": "Revokes `role` from the calling account. Roles are often managed via {grantRole} and {revokeRole}: this function's purpose is to provide a mechanism for accounts to lose their privileges if they are compromised (such as when a trusted device is misplaced). If the calling account had been revoked `role`, emits a {RoleRevoked} event. Requirements: - the caller must be `callerConfirmation`. May emit a {RoleRevoked} event."
      },
      "revokeRole(bytes32,address)": {
        "details": "Revokes `role` from `account`. If `account` had been granted `role`, emits a {RoleRevoked} event. Requirements: - the caller must have ``role``'s admin role. May emit a {RoleRevoked} event."
      },
      "safeBatchTransferFrom(address,address,uint256[],uint256[],bytes)": {
        "details": "See {IERC1155-safeBatchTransferFrom}."
      },
      "safeTransferFrom(address,address,uint256,uint256,bytes)": {
        "details": "See {IERC1155-safeTransferFrom}."
      },
      "setApprovalForAll(address,bool)": {
        "details": "See {IERC1155-setApprovalForAll}."
      },
      "totalSupply()": {
        "details": "Total value of tokens."
      },
      "totalSupply(uint256)": {
        "details": "Total value of tokens in with a given id."
      },
      "uri(uint256)": {
        "details": "See {IERC1155MetadataURI-uri}. This implementation returns the same URI for *all* token types. It relies on the token type ID substitution mechanism https://eips.ethereum.org/EIPS/eip-1155#metadata[defined in the EIP]. Clients calling this function must replace the `\\{id\\}` substring with the actual token type ID."
      }
    },
    "stateVariables": {
      "DAY_IN_SECONDS": {
        "details": "The amount of seconds in a day."
      },
      "WOFR": {
        "details": "Token IDs"
      },
      "apiSigner": {
        "details": "API wallet address."
      },
      "maxSpinsPerDay": {
        "details": "The maximum amount of spins a user can buy per day."
      },
      "nonces": {
        "details": "Track nonces for each user to prevent signature reuse."
      },
      "purchaseInfo": {
        "details": "User's purchase info."
      },
      "spinPriceUsdt": {
        "details": "The price of a single spin in USDT"
      },
      "treasuryWallet": {
        "details": "Wallet that all incoming USDT will be transfered to."
      },
      "usdtContract": {
        "details": "USDT contract address."
      }
    },
    "version": 1
  },
  "userdoc": {
    "kind": "user",
    "methods": {
      "buySpins(uint256)": {
        "notice": "The user must have enough USDT on their balance and have allowed the contract to spend the required amount."
      },
      "claim(address,uint256,uint256,bytes,bytes)": {
        "notice": "The signature must be signed by the API wallet."
      },
      "setApiSigner(address)": {
        "notice": "Update apiSigner address."
      },
      "setMaxSpinsPerDay(uint256)": {
        "notice": "Update max spins per day."
      },
      "setSpinPriceUsdt(uint256)": {
        "notice": "Update spin price in USDT."
      }
    },
    "version": 1
  },
  "storageLayout": {
    "storage": [
      {
        "astId": 9349,
        "contract": "contracts/spinner/Spinner.sol:Spinner",
        "label": "apiSigner",
        "offset": 0,
        "slot": "0",
        "type": "t_address"
      },
      {
        "astId": 9353,
        "contract": "contracts/spinner/Spinner.sol:Spinner",
        "label": "usdtContract",
        "offset": 0,
        "slot": "1",
        "type": "t_contract(IERC20)5336"
      },
      {
        "astId": 9356,
        "contract": "contracts/spinner/Spinner.sol:Spinner",
        "label": "spinPriceUsdt",
        "offset": 0,
        "slot": "2",
        "type": "t_uint256"
      },
      {
        "astId": 9360,
        "contract": "contracts/spinner/Spinner.sol:Spinner",
        "label": "maxSpinsPerDay",
        "offset": 0,
        "slot": "3",
        "type": "t_uint256"
      },
      {
        "astId": 9363,
        "contract": "contracts/spinner/Spinner.sol:Spinner",
        "label": "treasuryWallet",
        "offset": 0,
        "slot": "4",
        "type": "t_address"
      },
      {
        "astId": 9376,
        "contract": "contracts/spinner/Spinner.sol:Spinner",
        "label": "purchaseInfo",
        "offset": 0,
        "slot": "5",
        "type": "t_mapping(t_address,t_struct(PurchaseInfo)9370_storage)"
      },
      {
        "astId": 9381,
        "contract": "contracts/spinner/Spinner.sol:Spinner",
        "label": "nonces",
        "offset": 0,
        "slot": "6",
        "type": "t_mapping(t_address,t_uint256)"
      }
    ],
    "types": {
      "t_address": {
        "encoding": "inplace",
        "label": "address",
        "numberOfBytes": "20"
      },
      "t_contract(IERC20)5336": {
        "encoding": "inplace",
        "label": "contract IERC20",
        "numberOfBytes": "20"
      },
      "t_mapping(t_address,t_struct(PurchaseInfo)9370_storage)": {
        "encoding": "mapping",
        "key": "t_address",
        "label": "mapping(address => struct Spinner.PurchaseInfo)",
        "numberOfBytes": "32",
        "value": "t_struct(PurchaseInfo)9370_storage"
      },
      "t_mapping(t_address,t_uint256)": {
        "encoding": "mapping",
        "key": "t_address",
        "label": "mapping(address => uint256)",
        "numberOfBytes": "32",
        "value": "t_uint256"
      },
      "t_struct(PurchaseInfo)9370_storage": {
        "encoding": "inplace",
        "label": "struct Spinner.PurchaseInfo",
        "members": [
          {
            "astId": 9365,
            "contract": "contracts/spinner/Spinner.sol:Spinner",
            "label": "total",
            "offset": 0,
            "slot": "0",
            "type": "t_uint256"
          },
          {
            "astId": 9367,
            "contract": "contracts/spinner/Spinner.sol:Spinner",
            "label": "perDay",
            "offset": 0,
            "slot": "1",
            "type": "t_uint256"
          },
          {
            "astId": 9369,
            "contract": "contracts/spinner/Spinner.sol:Spinner",
            "label": "lastTime",
            "offset": 0,
            "slot": "2",
            "type": "t_uint256"
          }
        ],
        "numberOfBytes": "96"
      },
      "t_uint256": {
        "encoding": "inplace",
        "label": "uint256",
        "numberOfBytes": "32"
      }
    }
  }
}