{
  "address": "0x3F2f51a2592af9cC712368FE26d9d82B6CBd78dF",
  "abi": [
    {
      "inputs": [],
      "stateMutability": "nonpayable",
      "type": "constructor"
    },
    {
      "inputs": [],
      "name": "AccessControlBadConfirmation",
      "type": "error"
    },
    {
      "inputs": [
        {
          "internalType": "address",
          "name": "account",
          "type": "address"
        },
        {
          "internalType": "bytes32",
          "name": "neededRole",
          "type": "bytes32"
        }
      ],
      "name": "AccessControlUnauthorizedAccount",
      "type": "error"
    },
    {
      "inputs": [
        {
          "internalType": "address",
          "name": "target",
          "type": "address"
        }
      ],
      "name": "AddressEmptyCode",
      "type": "error"
    },
    {
      "inputs": [
        {
          "internalType": "address",
          "name": "account",
          "type": "address"
        }
      ],
      "name": "AddressInsufficientBalance",
      "type": "error"
    },
    {
      "inputs": [
        {
          "internalType": "uint256",
          "name": "value",
          "type": "uint256"
        }
      ],
      "name": "DiscountPercentIsTooBig",
      "type": "error"
    },
    {
      "inputs": [],
      "name": "ECDSAInvalidSignature",
      "type": "error"
    },
    {
      "inputs": [
        {
          "internalType": "uint256",
          "name": "length",
          "type": "uint256"
        }
      ],
      "name": "ECDSAInvalidSignatureLength",
      "type": "error"
    },
    {
      "inputs": [
        {
          "internalType": "bytes32",
          "name": "s",
          "type": "bytes32"
        }
      ],
      "name": "ECDSAInvalidSignatureS",
      "type": "error"
    },
    {
      "inputs": [],
      "name": "EnforcedPause",
      "type": "error"
    },
    {
      "inputs": [],
      "name": "ExpectedPause",
      "type": "error"
    },
    {
      "inputs": [],
      "name": "FailedInnerCall",
      "type": "error"
    },
    {
      "inputs": [],
      "name": "InvalidInitialization",
      "type": "error"
    },
    {
      "inputs": [],
      "name": "InvalidSignature",
      "type": "error"
    },
    {
      "inputs": [],
      "name": "NotEnoughUsdtAllowance",
      "type": "error"
    },
    {
      "inputs": [],
      "name": "NotEnoughUsdtOnBalance",
      "type": "error"
    },
    {
      "inputs": [],
      "name": "NotInitializing",
      "type": "error"
    },
    {
      "inputs": [
        {
          "internalType": "uint256",
          "name": "value",
          "type": "uint256"
        }
      ],
      "name": "ReferralRewardPercentIsTooBig",
      "type": "error"
    },
    {
      "inputs": [
        {
          "internalType": "address",
          "name": "token",
          "type": "address"
        }
      ],
      "name": "SafeERC20FailedOperation",
      "type": "error"
    },
    {
      "inputs": [],
      "name": "SoldOut",
      "type": "error"
    },
    {
      "inputs": [
        {
          "internalType": "string",
          "name": "param",
          "type": "string"
        }
      ],
      "name": "ZeroAddressProvided",
      "type": "error"
    },
    {
      "inputs": [
        {
          "internalType": "string",
          "name": "param",
          "type": "string"
        }
      ],
      "name": "ZeroValueProvided",
      "type": "error"
    },
    {
      "anonymous": false,
      "inputs": [
        {
          "indexed": false,
          "internalType": "address",
          "name": "newApiSigner",
          "type": "address"
        }
      ],
      "name": "ApiSignerUpdate",
      "type": "event"
    },
    {
      "anonymous": false,
      "inputs": [
        {
          "indexed": true,
          "internalType": "address",
          "name": "buyer",
          "type": "address"
        },
        {
          "indexed": false,
          "internalType": "uint256",
          "name": "amountUsdt",
          "type": "uint256"
        },
        {
          "indexed": false,
          "internalType": "uint256",
          "name": "amount",
          "type": "uint256"
        },
        {
          "indexed": false,
          "internalType": "uint256",
          "name": "discountPercent",
          "type": "uint256"
        }
      ],
      "name": "Buy",
      "type": "event"
    },
    {
      "anonymous": false,
      "inputs": [],
      "name": "EIP712DomainChanged",
      "type": "event"
    },
    {
      "anonymous": false,
      "inputs": [
        {
          "indexed": false,
          "internalType": "uint64",
          "name": "version",
          "type": "uint64"
        }
      ],
      "name": "Initialized",
      "type": "event"
    },
    {
      "anonymous": false,
      "inputs": [
        {
          "indexed": false,
          "internalType": "address",
          "name": "account",
          "type": "address"
        }
      ],
      "name": "Paused",
      "type": "event"
    },
    {
      "anonymous": false,
      "inputs": [
        {
          "indexed": true,
          "internalType": "address",
          "name": "fromBuyer",
          "type": "address"
        },
        {
          "indexed": true,
          "internalType": "address",
          "name": "to",
          "type": "address"
        },
        {
          "indexed": false,
          "internalType": "uint256",
          "name": "amountUsdt",
          "type": "uint256"
        },
        {
          "indexed": false,
          "internalType": "uint256",
          "name": "spentAmountUsdt",
          "type": "uint256"
        }
      ],
      "name": "ReferralReward",
      "type": "event"
    },
    {
      "anonymous": false,
      "inputs": [
        {
          "indexed": true,
          "internalType": "bytes32",
          "name": "role",
          "type": "bytes32"
        },
        {
          "indexed": true,
          "internalType": "bytes32",
          "name": "previousAdminRole",
          "type": "bytes32"
        },
        {
          "indexed": true,
          "internalType": "bytes32",
          "name": "newAdminRole",
          "type": "bytes32"
        }
      ],
      "name": "RoleAdminChanged",
      "type": "event"
    },
    {
      "anonymous": false,
      "inputs": [
        {
          "indexed": true,
          "internalType": "bytes32",
          "name": "role",
          "type": "bytes32"
        },
        {
          "indexed": true,
          "internalType": "address",
          "name": "account",
          "type": "address"
        },
        {
          "indexed": true,
          "internalType": "address",
          "name": "sender",
          "type": "address"
        }
      ],
      "name": "RoleGranted",
      "type": "event"
    },
    {
      "anonymous": false,
      "inputs": [
        {
          "indexed": true,
          "internalType": "bytes32",
          "name": "role",
          "type": "bytes32"
        },
        {
          "indexed": true,
          "internalType": "address",
          "name": "account",
          "type": "address"
        },
        {
          "indexed": true,
          "internalType": "address",
          "name": "sender",
          "type": "address"
        }
      ],
      "name": "RoleRevoked",
      "type": "event"
    },
    {
      "anonymous": false,
      "inputs": [
        {
          "indexed": false,
          "internalType": "uint256",
          "name": "newTokenPriceUsdt",
          "type": "uint256"
        }
      ],
      "name": "TokenPriceUsdtUpdate",
      "type": "event"
    },
    {
      "anonymous": false,
      "inputs": [
        {
          "indexed": false,
          "internalType": "address",
          "name": "account",
          "type": "address"
        }
      ],
      "name": "Unpaused",
      "type": "event"
    },
    {
      "anonymous": false,
      "inputs": [
        {
          "indexed": true,
          "internalType": "address",
          "name": "from",
          "type": "address"
        },
        {
          "indexed": true,
          "internalType": "address",
          "name": "to",
          "type": "address"
        },
        {
          "indexed": false,
          "internalType": "uint256",
          "name": "amount",
          "type": "uint256"
        }
      ],
      "name": "WithdrawUsdt",
      "type": "event"
    },
    {
      "inputs": [],
      "name": "DEFAULT_ADMIN_ROLE",
      "outputs": [
        {
          "internalType": "bytes32",
          "name": "",
          "type": "bytes32"
        }
      ],
      "stateMutability": "view",
      "type": "function"
    },
    {
      "inputs": [],
      "name": "PERCENT_MULTIPLIER",
      "outputs": [
        {
          "internalType": "uint256",
          "name": "",
          "type": "uint256"
        }
      ],
      "stateMutability": "view",
      "type": "function"
    },
    {
      "inputs": [
        {
          "internalType": "address",
          "name": "_to",
          "type": "address"
        },
        {
          "internalType": "uint256",
          "name": "_amountUsdt",
          "type": "uint256"
        },
        {
          "internalType": "uint256",
          "name": "_discountPercent",
          "type": "uint256"
        },
        {
          "internalType": "address",
          "name": "_referralWallet",
          "type": "address"
        },
        {
          "internalType": "uint256",
          "name": "_referralRewardPercent",
          "type": "uint256"
        },
        {
          "internalType": "bytes",
          "name": "_signature",
          "type": "bytes"
        }
      ],
      "name": "buy",
      "outputs": [],
      "stateMutability": "nonpayable",
      "type": "function"
    },
    {
      "inputs": [
        {
          "internalType": "address",
          "name": "_to",
          "type": "address"
        },
        {
          "internalType": "uint256",
          "name": "_amountUsdt",
          "type": "uint256"
        },
        {
          "internalType": "uint256",
          "name": "_discountPercent",
          "type": "uint256"
        }
      ],
      "name": "buyFor",
      "outputs": [],
      "stateMutability": "nonpayable",
      "type": "function"
    },
    {
      "inputs": [],
      "name": "eip712Domain",
      "outputs": [
        {
          "internalType": "bytes1",
          "name": "fields",
          "type": "bytes1"
        },
        {
          "internalType": "string",
          "name": "name",
          "type": "string"
        },
        {
          "internalType": "string",
          "name": "version",
          "type": "string"
        },
        {
          "internalType": "uint256",
          "name": "chainId",
          "type": "uint256"
        },
        {
          "internalType": "address",
          "name": "verifyingContract",
          "type": "address"
        },
        {
          "internalType": "bytes32",
          "name": "salt",
          "type": "bytes32"
        },
        {
          "internalType": "uint256[]",
          "name": "extensions",
          "type": "uint256[]"
        }
      ],
      "stateMutability": "view",
      "type": "function"
    },
    {
      "inputs": [
        {
          "internalType": "bytes32",
          "name": "role",
          "type": "bytes32"
        }
      ],
      "name": "getRoleAdmin",
      "outputs": [
        {
          "internalType": "bytes32",
          "name": "",
          "type": "bytes32"
        }
      ],
      "stateMutability": "view",
      "type": "function"
    },
    {
      "inputs": [],
      "name": "getTokenBalance",
      "outputs": [
        {
          "internalType": "uint256",
          "name": "",
          "type": "uint256"
        }
      ],
      "stateMutability": "view",
      "type": "function"
    },
    {
      "inputs": [],
      "name": "getUsdtBalance",
      "outputs": [
        {
          "internalType": "uint256",
          "name": "",
          "type": "uint256"
        }
      ],
      "stateMutability": "view",
      "type": "function"
    },
    {
      "inputs": [
        {
          "internalType": "bytes32",
          "name": "role",
          "type": "bytes32"
        },
        {
          "internalType": "address",
          "name": "account",
          "type": "address"
        }
      ],
      "name": "grantRole",
      "outputs": [],
      "stateMutability": "nonpayable",
      "type": "function"
    },
    {
      "inputs": [
        {
          "internalType": "bytes32",
          "name": "role",
          "type": "bytes32"
        },
        {
          "internalType": "address",
          "name": "account",
          "type": "address"
        }
      ],
      "name": "hasRole",
      "outputs": [
        {
          "internalType": "bool",
          "name": "",
          "type": "bool"
        }
      ],
      "stateMutability": "view",
      "type": "function"
    },
    {
      "inputs": [
        {
          "internalType": "address",
          "name": "_admin",
          "type": "address"
        },
        {
          "internalType": "contract IERC20",
          "name": "_usdtContract",
          "type": "address"
        },
        {
          "internalType": "address",
          "name": "_treasuryWallet",
          "type": "address"
        },
        {
          "internalType": "address",
          "name": "_apiSigner",
          "type": "address"
        },
        {
          "internalType": "uint256",
          "name": "_totalTokensForSale",
          "type": "uint256"
        },
        {
          "internalType": "uint256",
          "name": "_tokenPriceUsdt",
          "type": "uint256"
        }
      ],
      "name": "initialize",
      "outputs": [],
      "stateMutability": "nonpayable",
      "type": "function"
    },
    {
      "inputs": [],
      "name": "pause",
      "outputs": [],
      "stateMutability": "nonpayable",
      "type": "function"
    },
    {
      "inputs": [],
      "name": "paused",
      "outputs": [
        {
          "internalType": "bool",
          "name": "",
          "type": "bool"
        }
      ],
      "stateMutability": "view",
      "type": "function"
    },
    {
      "inputs": [
        {
          "internalType": "bytes32",
          "name": "role",
          "type": "bytes32"
        },
        {
          "internalType": "address",
          "name": "callerConfirmation",
          "type": "address"
        }
      ],
      "name": "renounceRole",
      "outputs": [],
      "stateMutability": "nonpayable",
      "type": "function"
    },
    {
      "inputs": [
        {
          "internalType": "bytes32",
          "name": "role",
          "type": "bytes32"
        },
        {
          "internalType": "address",
          "name": "account",
          "type": "address"
        }
      ],
      "name": "revokeRole",
      "outputs": [],
      "stateMutability": "nonpayable",
      "type": "function"
    },
    {
      "inputs": [
        {
          "internalType": "address",
          "name": "_apiSigner",
          "type": "address"
        }
      ],
      "name": "setApiSigner",
      "outputs": [],
      "stateMutability": "nonpayable",
      "type": "function"
    },
    {
      "inputs": [
        {
          "internalType": "uint256",
          "name": "_tokenPriceUsdt",
          "type": "uint256"
        }
      ],
      "name": "setTokenPriceUsdt",
      "outputs": [],
      "stateMutability": "nonpayable",
      "type": "function"
    },
    {
      "inputs": [
        {
          "internalType": "bytes4",
          "name": "interfaceId",
          "type": "bytes4"
        }
      ],
      "name": "supportsInterface",
      "outputs": [
        {
          "internalType": "bool",
          "name": "",
          "type": "bool"
        }
      ],
      "stateMutability": "view",
      "type": "function"
    },
    {
      "inputs": [
        {
          "internalType": "address",
          "name": "_address",
          "type": "address"
        }
      ],
      "name": "tokenBalanceOf",
      "outputs": [
        {
          "internalType": "uint256",
          "name": "",
          "type": "uint256"
        }
      ],
      "stateMutability": "view",
      "type": "function"
    },
    {
      "inputs": [],
      "name": "tokenPriceUsdt",
      "outputs": [
        {
          "internalType": "uint256",
          "name": "",
          "type": "uint256"
        }
      ],
      "stateMutability": "view",
      "type": "function"
    },
    {
      "inputs": [],
      "name": "totalSoldTokens",
      "outputs": [
        {
          "internalType": "uint256",
          "name": "",
          "type": "uint256"
        }
      ],
      "stateMutability": "view",
      "type": "function"
    },
    {
      "inputs": [],
      "name": "totalTokensForSale",
      "outputs": [
        {
          "internalType": "uint256",
          "name": "",
          "type": "uint256"
        }
      ],
      "stateMutability": "view",
      "type": "function"
    },
    {
      "inputs": [],
      "name": "unpause",
      "outputs": [],
      "stateMutability": "nonpayable",
      "type": "function"
    },
    {
      "inputs": [],
      "name": "usdtContract",
      "outputs": [
        {
          "internalType": "contract IERC20",
          "name": "",
          "type": "address"
        }
      ],
      "stateMutability": "view",
      "type": "function"
    },
    {
      "inputs": [
        {
          "internalType": "address",
          "name": "_to",
          "type": "address"
        },
        {
          "internalType": "uint256",
          "name": "_amount",
          "type": "uint256"
        }
      ],
      "name": "withdrawUsdt",
      "outputs": [],
      "stateMutability": "nonpayable",
      "type": "function"
    }
  ],
  "transactionHash": "0xdd6fb2eacc80227e2728cd602347925c30fc30f6b94c3a43a505bc43d990b42b",
  "args": [],
  "numDeployments": 1,
  "solcInputHash": "08d5238fc8c0446e53de6747d72bf9a9",
  "bytecode": "0x608060405234801561001057600080fd5b5061001961001e565b6100d0565b7ff0c57e16840df040f15088dc2f81fe391c3923bec73e23a9662efc9c229c6a00805468010000000000000000900460ff161561006e5760405163f92ee8a960e01b815260040160405180910390fd5b80546001600160401b03908116146100cd5780546001600160401b0319166001600160401b0390811782556040519081527fc7f505b2f371ae2175ee4913f4499e1f2633a7b5936321eed1cdaeb6115181d29060200160405180910390a15b50565b612049806100df6000396000f3fe608060405234801561001057600080fd5b50600436106101735760003560e01c806382b2e257116100de578063a217fddf11610097578063d7c41c7911610071578063d7c41c7914610311578063d7ca994914610324578063e42c08f21461032d578063ed0924511461035657600080fd5b8063a217fddf146102e3578063a3fb5bee146102eb578063d547741f146102fe57600080fd5b806382b2e2571461027c5780638456cb591461029157806384b0196e146102995780638a789716146102b457806391d14854146102bd578063935b7dbd146102d057600080fd5b806336568abe1161013057806336568abe1461020d5780633f4ba83a146102205780635c975abb1461022857806360219c7b14610240578063611509231461024957806363b815fa1461027457600080fd5b806301ffc9a71461017857806306292f2b146101a05780630b984995146101bf5780630d4192d9146101d4578063248a9ca3146101e75780632f2ff15d146101fa575b600080fd5b61018b610186366004611a5f565b610369565b60405190151581526020015b60405180910390f35b336000908152600760205260409020545b604051908152602001610197565b6101d26101cd366004611a9e565b6103a0565b005b6101d26101e2366004611abb565b61044a565b6101b16101f5366004611abb565b6104cd565b6101d2610208366004611ad4565b6104ef565b6101d261021b366004611ad4565b610511565b6101d2610549565b600080516020611ff48339815191525460ff1661018b565b6101b160045481565b60025461025c906001600160a01b031681565b6040516001600160a01b039091168152602001610197565b6101b1600a81565b336000908152600660205260409020546101b1565b6101d261055f565b6102a1610572565b6040516101979796959493929190611b54565b6101b160035481565b61018b6102cb366004611ad4565b61061e565b6101d26102de366004611bed565b610656565b6101b1600081565b6101d26102f9366004611c22565b6106da565b6101d261030c366004611ad4565b610707565b6101d261031f366004611cd7565b610723565b6101b160055481565b6101b161033b366004611a9e565b6001600160a01b031660009081526006602052604090205490565b6101d2610364366004611d45565b610a7e565b60006001600160e01b03198216637965db0b60e01b148061039a57506301ffc9a760e01b6001600160e01b03198316145b92915050565b60006103ab81610b3f565b6001600160a01b0382166103f4576040516356af9c8160e01b815260206004820152600a6024820152692fb0b834a9b4b3b732b960b11b60448201526064015b60405180910390fd5b600180546001600160a01b0319166001600160a01b0384169081179091556040519081527f3650804d6f777e7b5a4ca4a047fcef31c1327c3a01f1e4f7e5a0ceb8a453ccf6906020015b60405180910390a15050565b600061045581610b3f565b816000036104985760405163b2b81a1d60e01b815260206004820152600f60248201526e17dd1bdad95b941c9a58d9555cd91d608a1b60448201526064016103eb565b60038290556040518281527fb3f65b77fb08172cf146f63896002e0a91440e2ba50555db9e327d4553857d2a9060200161043e565b6000908152600080516020611fd4833981519152602052604090206001015490565b6104f8826104cd565b61050181610b3f565b61050b8383610b49565b50505050565b6001600160a01b038116331461053a5760405163334bd91960e11b815260040160405180910390fd5b6105448282610bee565b505050565b600061055481610b3f565b61055c610c6a565b50565b600061056a81610b3f565b61055c610cca565b60006060808280808381600080516020611fb4833981519152805490915015801561059f57506001810154155b6105e35760405162461bcd60e51b81526020600482015260156024820152741152540dcc4c8e88155b9a5b9a5d1a585b1a5e9959605a1b60448201526064016103eb565b6105eb610d13565b6105f3610dd6565b60408051600080825260208201909252600f60f81b9c939b5091995046985030975095509350915050565b6000918252600080516020611fd4833981519152602090815260408084206001600160a01b0393909316845291905290205460ff1690565b600061066181610b3f565b6001600160a01b03841661069e576040516356af9c8160e01b81526020600482015260036024820152625f746f60e81b60448201526064016103eb565b6106a9600a80611d9d565b8211156106cc57604051635fa709cd60e11b8152600481018390526024016103eb565b61050b848484600080610e15565b6106e261115e565b6106f187878787878787611191565b6106fe8787878787610e15565b50505050505050565b610710826104cd565b61071981610b3f565b61050b8383610bee565b7ff0c57e16840df040f15088dc2f81fe391c3923bec73e23a9662efc9c229c6a008054600160401b810460ff16159067ffffffffffffffff166000811580156107695750825b905060008267ffffffffffffffff1660011480156107865750303b155b905081158015610794575080155b156107b25760405163f92ee8a960e01b815260040160405180910390fd5b845467ffffffffffffffff1916600117855583156107dc57845460ff60401b1916600160401b1785555b6107e46112a5565b6107ec6112ad565b61083a60405180604001604052806013815260200172576f726d6661726520546f6b656e2053616c6560681b815250604051806040016040528060018152602001603160f81b8152506112bd565b6001600160a01b038b1661087a576040516356af9c8160e01b81526020600482015260066024820152652fb0b236b4b760d11b60448201526064016103eb565b6001600160a01b038a166108c1576040516356af9c8160e01b815260206004820152600d60248201526c17dd5cd91d10dbdb9d1c9858dd609a1b60448201526064016103eb565b6001600160a01b03891661090a576040516356af9c8160e01b815260206004820152600f60248201526e17dd1c99585cdd5c9e55d85b1b195d608a1b60448201526064016103eb565b6001600160a01b03881661094e576040516356af9c8160e01b815260206004820152600a6024820152692fb0b834a9b4b3b732b960b11b60448201526064016103eb565b866000036109955760405163b2b81a1d60e01b81526020600482015260136024820152725f746f74616c546f6b656e73466f7253616c6560681b60448201526064016103eb565b856000036109d85760405163b2b81a1d60e01b815260206004820152600f60248201526e17dd1bdad95b941c9a58d9555cd91d608a1b60448201526064016103eb565b6109e360008c610b49565b50600280546001600160a01b03808d166001600160a01b031992831617909255600080548c841690831617905560018054928b1692909116919091179055600487905560038690558315610a7157845460ff60401b19168555604051600181527fc7f505b2f371ae2175ee4913f4499e1f2633a7b5936321eed1cdaeb6115181d29060200160405180910390a15b5050505050505050505050565b610a8661115e565b33600090815260076020526040902054811115610ab6576040516305330f7360e01b815260040160405180910390fd5b3360009081526007602052604081208054839290610ad5908490611db4565b90915550610afb905082610ae8836112d3565b6002546001600160a01b031691906112e4565b6040518181526001600160a01b0383169033907fa4ebbcafcc06907d8b1e0959e51153e27ad8a599a1d2dfcb7a86dfbdfa21a7ed9060200160405180910390a35050565b61055c8133611343565b6000600080516020611fd4833981519152610b64848461061e565b610be4576000848152602082815260408083206001600160a01b03871684529091529020805460ff19166001179055610b9a3390565b6001600160a01b0316836001600160a01b0316857f2f8788117e7eff1d82e926ec794901d17c78024a50270940304540a733656f0d60405160405180910390a4600191505061039a565b600091505061039a565b6000600080516020611fd4833981519152610c09848461061e565b15610be4576000848152602082815260408083206001600160a01b0387168085529252808320805460ff1916905551339287917ff6391f5c32d9c69d2a47ea670b442974b53935d1edc7fd64eb21e047a839171b9190a4600191505061039a565b610c7261137c565b600080516020611ff4833981519152805460ff191681557f5db9ee0a495bf2e6ff9c91a7834c1ba4fdd244a5e8aa4e537bd38aeae4b073aa335b6040516001600160a01b03909116815260200160405180910390a150565b610cd261115e565b600080516020611ff4833981519152805460ff191660011781557f62e78cea01bee320cd4e420270b5ea74000d11b0c9f74754ebdbfc544b05a25833610cac565b7fa16a46d94261c7517cc8ff89f61c0ce93598e3c849801011dee649a6a557d1028054606091600080516020611fb483398151915291610d5290611dc7565b80601f0160208091040260200160405190810160405280929190818152602001828054610d7e90611dc7565b8015610dcb5780601f10610da057610100808354040283529160200191610dcb565b820191906000526020600020905b815481529060010190602001808311610dae57829003601f168201915b505050505091505090565b7fa16a46d94261c7517cc8ff89f61c0ce93598e3c849801011dee649a6a557d1038054606091600080516020611fb483398151915291610d5290611dc7565b83600003610e545760405163b2b81a1d60e01b815260206004820152600b60248201526a17d85b5bdd5b9d155cd91d60aa1b60448201526064016103eb565b610e5d846112d3565b600254604051636eb1769f60e11b81523360048201523060248201526001600160a01b039091169063dd62ed3e90604401602060405180830381865afa158015610eab573d6000803e3d6000fd5b505050506040513d601f19601f82011682018060405250810190610ecf9190611e01565b1015610eee576040516341995fbf60e01b815260040160405180910390fd5b60045460055410610f12576040516352df9fe560e01b815260040160405180910390fd5b610f1e600a6014611d9d565b831115610f4157604051635fa709cd60e11b8152600481018490526024016103eb565b610f4c600a80611d9d565b811115610f6f5760405163e0de3ef960e01b8152600481018290526024016103eb565b610f78846113ac565b93506000600a606485600354610f8e9190611d9d565b610f989190611e1a565b610fa29190611e1a565b600354610faf9190611db4565b9050600081610fc687670de0b6b3a7640000611d9d565b610fd09190611e1a565b905060045481600554610fe39190611e3c565b111561100857600554600454610ff99190611db4565b905061100581836113c6565b95505b8560006110168287876113ec565b6001600160a01b038a16600090815260066020526040812080549293508592909190611043908490611e3c565b92505081905550826005600082825461105c9190611e3c565b909155505080156110ec576110718183611db4565b91506110953330611081846112d3565b6002546001600160a01b031692919061146b565b856001600160a01b0316896001600160a01b03167fbd7e5be34537a425747cf06d84eca4d59c865e2002b7d5f36f14558bdc5ae8cd838b6040516110e3929190918252602082015260400190565b60405180910390a35b6000546111079033906001600160a01b0316611081856112d3565b60408051898152602081018590529081018890526001600160a01b038a16907fbeae048c6d270d9469f86cf6e8fedda3c60ad770f16c24c9fc131c8e9a09101d9060600160405180910390a2505050505050505050565b600080516020611ff48339815191525460ff161561118f5760405163d93c066560e01b815260040160405180910390fd5b565b600354604080517f6848149eb78571779a56c9d7628e13c19a40da435f30a662c674cae77d5e998760208201526001600160a01b03808b1692820192909252606081018990526080810188905290861660a082015260c0810185905260e0810191909152336101008201526000906112229061012001604051602081830303815290604052805190602001206114a4565b600154604080516020601f87018190048102820181019092528581529293506001600160a01b03909116916112749184919087908790819084018382808284376000920191909152506114d192505050565b6001600160a01b03161461129b57604051638baa579f60e01b815260040160405180910390fd5b5050505050505050565b61118f6114fb565b6112b56114fb565b61118f611544565b6112c56114fb565b6112cf8282611565565b5050565b600061039a64e8d4a5100083611e1a565b6040516001600160a01b0383811660248301526044820183905261054491859182169063a9059cbb906064015b604051602081830303815290604052915060e01b6020820180516001600160e01b0383818316178352505050506115c6565b61134d828261061e565b6112cf5760405163e2517d3f60e01b81526001600160a01b0382166004820152602481018390526044016103eb565b600080516020611ff48339815191525460ff1661118f57604051638dfc202b60e01b815260040160405180910390fd5b60006113b7826112d3565b61039a9064e8d4a51000611d9d565b6000670de0b6b3a76400006113db8385611d9d565b6113e59190611e1a565b9392505050565b60006001600160a01b038316611404575060006113e5565b6000611430600a60646114178689611d9d565b6114219190611e1a565b61142b9190611e1a565b6113ac565b6001600160a01b03851660009081526007602052604081208054929350839290919061145d908490611e3c565b909155509095945050505050565b6040516001600160a01b03848116602483015283811660448301526064820183905261050b9186918216906323b872dd90608401611311565b600061039a6114b1611629565b8360405161190160f01b8152600281019290925260228201526042902090565b6000806000806114e18686611638565b9250925092506114f18282611685565b5090949350505050565b7ff0c57e16840df040f15088dc2f81fe391c3923bec73e23a9662efc9c229c6a0054600160401b900460ff1661118f57604051631afcd79f60e31b815260040160405180910390fd5b61154c6114fb565b600080516020611ff4833981519152805460ff19169055565b61156d6114fb565b600080516020611fb48339815191527fa16a46d94261c7517cc8ff89f61c0ce93598e3c849801011dee649a6a557d1026115a78482611e9f565b50600381016115b68382611e9f565b5060008082556001909101555050565b60006115db6001600160a01b0384168361173e565b905080516000141580156116005750808060200190518101906115fe9190611f5f565b155b1561054457604051635274afe760e01b81526001600160a01b03841660048201526024016103eb565b600061163361174c565b905090565b600080600083516041036116725760208401516040850151606086015160001a611664888285856117c0565b95509550955050505061167e565b50508151600091506002905b9250925092565b600082600381111561169957611699611f81565b036116a2575050565b60018260038111156116b6576116b6611f81565b036116d45760405163f645eedf60e01b815260040160405180910390fd5b60028260038111156116e8576116e8611f81565b036117095760405163fce698f760e01b8152600481018290526024016103eb565b600382600381111561171d5761171d611f81565b036112cf576040516335e2f38360e21b8152600481018290526024016103eb565b60606113e58383600061188f565b60007f8b73c3c69bb8fe3d512ecc4cf759cc79239f7b179b0ffacaa9a75d522b39400f61177761192c565b61177f611996565b60408051602081019490945283019190915260608201524660808201523060a082015260c00160405160208183030381529060405280519060200120905090565b600080807f7fffffffffffffffffffffffffffffff5d576e7357a4501ddfe92f46681b20a08411156117fb5750600091506003905082611885565b604080516000808252602082018084528a905260ff891692820192909252606081018790526080810186905260019060a0016020604051602081039080840390855afa15801561184f573d6000803e3d6000fd5b5050604051601f1901519150506001600160a01b03811661187b57506000925060019150829050611885565b9250600091508190505b9450945094915050565b6060814710156118b45760405163cd78605960e01b81523060048201526024016103eb565b600080856001600160a01b031684866040516118d09190611f97565b60006040518083038185875af1925050503d806000811461190d576040519150601f19603f3d011682016040523d82523d6000602084013e611912565b606091505b50915091506119228683836119da565b9695505050505050565b6000600080516020611fb483398151915281611946610d13565b80519091501561195e57805160209091012092915050565b8154801561196d579392505050565b7fc5d2460186f7233c927e7db2dcc703c0e500b653ca82273b7bfad8045d85a470935050505090565b6000600080516020611fb4833981519152816119b0610dd6565b8051909150156119c857805160209091012092915050565b6001820154801561196d579392505050565b6060826119ef576119ea82611a36565b6113e5565b8151158015611a0657506001600160a01b0384163b155b15611a2f57604051639996b31560e01b81526001600160a01b03851660048201526024016103eb565b50806113e5565b805115611a465780518082602001fd5b604051630a12f52160e11b815260040160405180910390fd5b600060208284031215611a7157600080fd5b81356001600160e01b0319811681146113e557600080fd5b6001600160a01b038116811461055c57600080fd5b600060208284031215611ab057600080fd5b81356113e581611a89565b600060208284031215611acd57600080fd5b5035919050565b60008060408385031215611ae757600080fd5b823591506020830135611af981611a89565b809150509250929050565b60005b83811015611b1f578181015183820152602001611b07565b50506000910152565b60008151808452611b40816020860160208601611b04565b601f01601f19169290920160200192915050565b60ff60f81b881681526000602060e06020840152611b7560e084018a611b28565b8381036040850152611b87818a611b28565b606085018990526001600160a01b038816608086015260a0850187905284810360c08601528551808252602080880193509091019060005b81811015611bdb57835183529284019291840191600101611bbf565b50909c9b505050505050505050505050565b600080600060608486031215611c0257600080fd5b8335611c0d81611a89565b95602085013595506040909401359392505050565b600080600080600080600060c0888a031215611c3d57600080fd5b8735611c4881611a89565b965060208801359550604088013594506060880135611c6681611a89565b93506080880135925060a088013567ffffffffffffffff80821115611c8a57600080fd5b818a0191508a601f830112611c9e57600080fd5b813581811115611cad57600080fd5b8b6020828501011115611cbf57600080fd5b60208301945080935050505092959891949750929550565b60008060008060008060c08789031215611cf057600080fd5b8635611cfb81611a89565b95506020870135611d0b81611a89565b94506040870135611d1b81611a89565b93506060870135611d2b81611a89565b9598949750929560808101359460a0909101359350915050565b60008060408385031215611d5857600080fd5b8235611d6381611a89565b946020939093013593505050565b634e487b7160e01b600052604160045260246000fd5b634e487b7160e01b600052601160045260246000fd5b808202811582820484141761039a5761039a611d87565b8181038181111561039a5761039a611d87565b600181811c90821680611ddb57607f821691505b602082108103611dfb57634e487b7160e01b600052602260045260246000fd5b50919050565b600060208284031215611e1357600080fd5b5051919050565b600082611e3757634e487b7160e01b600052601260045260246000fd5b500490565b8082018082111561039a5761039a611d87565b601f821115610544576000816000526020600020601f850160051c81016020861015611e785750805b601f850160051c820191505b81811015611e9757828155600101611e84565b505050505050565b815167ffffffffffffffff811115611eb957611eb9611d71565b611ecd81611ec78454611dc7565b84611e4f565b602080601f831160018114611f025760008415611eea5750858301515b600019600386901b1c1916600185901b178555611e97565b600085815260208120601f198616915b82811015611f3157888601518255948401946001909101908401611f12565b5085821015611f4f5787850151600019600388901b60f8161c191681555b5050505050600190811b01905550565b600060208284031215611f7157600080fd5b815180151581146113e557600080fd5b634e487b7160e01b600052602160045260246000fd5b60008251611fa9818460208701611b04565b919091019291505056fea16a46d94261c7517cc8ff89f61c0ce93598e3c849801011dee649a6a557d10002dd7bc7dec4dceedda775e58dd541e08a116c6c53815c0bd028192f7b626800cd5ed15c6e187e77e9aee88184c21f4f2182ab5827cb3b7e07fbedcd63f03300a26469706673582212203fe6e9a2514c6e99783d78b6e555f85b82585931d0800d077fbf1a3d0f92162e64736f6c63430008170033",
  "devdoc": {
    "errors": {
      "AccessControlBadConfirmation()": [
        {
          "details": "The caller of a function is not the expected one. NOTE: Don't confuse with {AccessControlUnauthorizedAccount}."
        }
      ],
      "AccessControlUnauthorizedAccount(address,bytes32)": [
        {
          "details": "The `account` is missing a role."
        }
      ],
      "AddressEmptyCode(address)": [
        {
          "details": "There's no code at `target` (it is not a contract)."
        }
      ],
      "AddressInsufficientBalance(address)": [
        {
          "details": "The ETH balance of the account is not enough to perform the operation."
        }
      ],
      "ECDSAInvalidSignature()": [
        {
          "details": "The signature derives the `address(0)`."
        }
      ],
      "ECDSAInvalidSignatureLength(uint256)": [
        {
          "details": "The signature has an invalid length."
        }
      ],
      "ECDSAInvalidSignatureS(bytes32)": [
        {
          "details": "The signature has an S value that is in the upper half order."
        }
      ],
      "EnforcedPause()": [
        {
          "details": "The operation failed because the contract is paused."
        }
      ],
      "ExpectedPause()": [
        {
          "details": "The operation failed because the contract is not paused."
        }
      ],
      "FailedInnerCall()": [
        {
          "details": "A call to an address target failed. The target may have reverted."
        }
      ],
      "InvalidInitialization()": [
        {
          "details": "The contract is already initialized."
        }
      ],
      "NotInitializing()": [
        {
          "details": "The contract is not initializing."
        }
      ],
      "SafeERC20FailedOperation(address)": [
        {
          "details": "An operation with an ERC20 token failed."
        }
      ]
    },
    "events": {
      "EIP712DomainChanged()": {
        "details": "MAY be emitted to signal that the domain could have changed."
      },
      "Initialized(uint64)": {
        "details": "Triggered when the contract has been initialized or reinitialized."
      },
      "Paused(address)": {
        "details": "Emitted when the pause is triggered by `account`."
      },
      "RoleAdminChanged(bytes32,bytes32,bytes32)": {
        "details": "Emitted when `newAdminRole` is set as ``role``'s admin role, replacing `previousAdminRole` `DEFAULT_ADMIN_ROLE` is the starting admin for all roles, despite {RoleAdminChanged} not being emitted signaling this."
      },
      "RoleGranted(bytes32,address,address)": {
        "details": "Emitted when `account` is granted `role`. `sender` is the account that originated the contract call, an admin role bearer except when using {AccessControl-_setupRole}."
      },
      "RoleRevoked(bytes32,address,address)": {
        "details": "Emitted when `account` is revoked `role`. `sender` is the account that originated the contract call:   - if using `revokeRole`, it is the admin role bearer   - if using `renounceRole`, it is the role bearer (i.e. `account`)"
      },
      "Unpaused(address)": {
        "details": "Emitted when the pause is lifted by `account`."
      }
    },
    "kind": "dev",
    "methods": {
      "buy(address,uint256,uint256,address,uint256,bytes)": {
        "params": {
          "_amountUsdt": "USDT amount the user wants to spend (18 decimals).",
          "_discountPercent": "Applied discount for buyer (multiplied by 10).",
          "_referralRewardPercent": "Percentage of bought amount the referral account should receive as a reward.",
          "_referralWallet": "Referral wallet (or zero address).",
          "_signature": "API signature.",
          "_to": "Tokens receiver."
        }
      },
      "buyFor(address,uint256,uint256)": {
        "params": {
          "_amountUsdt": "USDT amount with 18 decimals.",
          "_discountPercent": "Discount percent (multiplied by 10).",
          "_to": "Tokens receiver."
        }
      },
      "constructor": {
        "custom:oz-upgrades-unsafe-allow": "constructor"
      },
      "eip712Domain()": {
        "details": "See {IERC-5267}."
      },
      "getRoleAdmin(bytes32)": {
        "details": "Returns the admin role that controls `role`. See {grantRole} and {revokeRole}. To change a role's admin, use {_setRoleAdmin}."
      },
      "grantRole(bytes32,address)": {
        "details": "Grants `role` to `account`. If `account` had not been already granted `role`, emits a {RoleGranted} event. Requirements: - the caller must have ``role``'s admin role. May emit a {RoleGranted} event."
      },
      "hasRole(bytes32,address)": {
        "details": "Returns `true` if `account` has been granted `role`."
      },
      "initialize(address,address,address,address,uint256,uint256)": {
        "params": {
          "_admin": "Admin wallet address.",
          "_apiSigner": "API signer wallet address.",
          "_tokenPriceUsdt": "USDT price for 10**18 tokens (should use 18 decimals).",
          "_totalTokensForSale": "Total amount of tokens this contract may sell.",
          "_treasuryWallet": "Wallet that will receive all incoming USDT.",
          "_usdtContract": "USDT contract address."
        }
      },
      "paused()": {
        "details": "Returns true if the contract is paused, and false otherwise."
      },
      "renounceRole(bytes32,address)": {
        "details": "Revokes `role` from the calling account. Roles are often managed via {grantRole} and {revokeRole}: this function's purpose is to provide a mechanism for accounts to lose their privileges if they are compromised (such as when a trusted device is misplaced). If the calling account had been revoked `role`, emits a {RoleRevoked} event. Requirements: - the caller must be `callerConfirmation`. May emit a {RoleRevoked} event."
      },
      "revokeRole(bytes32,address)": {
        "details": "Revokes `role` from `account`. If `account` had been granted `role`, emits a {RoleRevoked} event. Requirements: - the caller must have ``role``'s admin role. May emit a {RoleRevoked} event."
      },
      "supportsInterface(bytes4)": {
        "details": "See {IERC165-supportsInterface}."
      },
      "withdrawUsdt(address,uint256)": {
        "params": {
          "_amount": "USDT amount to withdraw. Should be 18 decimals here.",
          "_to": "Receiver address."
        }
      }
    },
    "stateVariables": {
      "apiSigner": {
        "details": "API wallet address."
      },
      "tokenBalances": {
        "details": "Bought tokens + referral rewards in tokens."
      },
      "tokenPriceUsdt": {
        "details": "Token price in USDT. 18 decimals should be used here, though USDT has 6 decimals."
      },
      "totalSoldTokens": {
        "details": "Sold tokens amount."
      },
      "totalTokensForSale": {
        "details": "Total amount of tokens this contract may sell."
      },
      "treasuryWallet": {
        "details": "Wallet that all incoming USDT will be transfered to."
      },
      "usdtBalances": {
        "details": "USDT referral rewards."
      },
      "usdtContract": {
        "details": "USDT contract address."
      }
    },
    "version": 1
  },
  "userdoc": {
    "kind": "user",
    "methods": {
      "buy(address,uint256,uint256,address,uint256,bytes)": {
        "notice": "Buy tokens using USDT."
      },
      "buyFor(address,uint256,uint256)": {
        "notice": "Buy tokens for someone else (admin only)."
      },
      "getTokenBalance()": {
        "notice": "Returns sender's token balance."
      },
      "getUsdtBalance()": {
        "notice": "Returns sender's USDT balance. Return value uses 18 decimals."
      },
      "pause()": {
        "notice": "Disable some contract functions."
      },
      "setApiSigner(address)": {
        "notice": "Update apiSigner address."
      },
      "setTokenPriceUsdt(uint256)": {
        "notice": "Update token price in USDT. 18 decimals should be used here."
      },
      "tokenBalanceOf(address)": {
        "notice": "Returns the token balance of the given address."
      },
      "unpause()": {
        "notice": "Enable all contract functions."
      },
      "withdrawUsdt(address,uint256)": {
        "notice": "Withdraw USDT rewards."
      }
    },
    "version": 1
  },
  "storageLayout": {
    "storage": [
      {
        "astId": 8314,
        "contract": "contracts/TokenSale.sol:TokenSale",
        "label": "treasuryWallet",
        "offset": 0,
        "slot": "0",
        "type": "t_address"
      },
      {
        "astId": 8317,
        "contract": "contracts/TokenSale.sol:TokenSale",
        "label": "apiSigner",
        "offset": 0,
        "slot": "1",
        "type": "t_address"
      },
      {
        "astId": 8321,
        "contract": "contracts/TokenSale.sol:TokenSale",
        "label": "usdtContract",
        "offset": 0,
        "slot": "2",
        "type": "t_contract(IERC20)5336"
      },
      {
        "astId": 8324,
        "contract": "contracts/TokenSale.sol:TokenSale",
        "label": "tokenPriceUsdt",
        "offset": 0,
        "slot": "3",
        "type": "t_uint256"
      },
      {
        "astId": 8327,
        "contract": "contracts/TokenSale.sol:TokenSale",
        "label": "totalTokensForSale",
        "offset": 0,
        "slot": "4",
        "type": "t_uint256"
      },
      {
        "astId": 8330,
        "contract": "contracts/TokenSale.sol:TokenSale",
        "label": "totalSoldTokens",
        "offset": 0,
        "slot": "5",
        "type": "t_uint256"
      },
      {
        "astId": 8335,
        "contract": "contracts/TokenSale.sol:TokenSale",
        "label": "tokenBalances",
        "offset": 0,
        "slot": "6",
        "type": "t_mapping(t_address,t_uint256)"
      },
      {
        "astId": 8340,
        "contract": "contracts/TokenSale.sol:TokenSale",
        "label": "usdtBalances",
        "offset": 0,
        "slot": "7",
        "type": "t_mapping(t_address,t_uint256)"
      }
    ],
    "types": {
      "t_address": {
        "encoding": "inplace",
        "label": "address",
        "numberOfBytes": "20"
      },
      "t_contract(IERC20)5336": {
        "encoding": "inplace",
        "label": "contract IERC20",
        "numberOfBytes": "20"
      },
      "t_mapping(t_address,t_uint256)": {
        "encoding": "mapping",
        "key": "t_address",
        "label": "mapping(address => uint256)",
        "numberOfBytes": "32",
        "value": "t_uint256"
      },
      "t_uint256": {
        "encoding": "inplace",
        "label": "uint256",
        "numberOfBytes": "32"
      }
    }
  }
}