{
  "address": "0x1320F52d38791Af242677206562b110926FC9B36",
  "abi": [
    {
      "inputs": [],
      "stateMutability": "nonpayable",
      "type": "constructor"
    },
    {
      "inputs": [],
      "name": "AccessControlBadConfirmation",
      "type": "error"
    },
    {
      "inputs": [
        {
          "internalType": "address",
          "name": "account",
          "type": "address"
        },
        {
          "internalType": "bytes32",
          "name": "neededRole",
          "type": "bytes32"
        }
      ],
      "name": "AccessControlUnauthorizedAccount",
      "type": "error"
    },
    {
      "inputs": [
        {
          "internalType": "address",
          "name": "target",
          "type": "address"
        }
      ],
      "name": "AddressEmptyCode",
      "type": "error"
    },
    {
      "inputs": [
        {
          "internalType": "address",
          "name": "account",
          "type": "address"
        }
      ],
      "name": "AddressInsufficientBalance",
      "type": "error"
    },
    {
      "inputs": [],
      "name": "ECDSAInvalidSignature",
      "type": "error"
    },
    {
      "inputs": [
        {
          "internalType": "uint256",
          "name": "length",
          "type": "uint256"
        }
      ],
      "name": "ECDSAInvalidSignatureLength",
      "type": "error"
    },
    {
      "inputs": [
        {
          "internalType": "bytes32",
          "name": "s",
          "type": "bytes32"
        }
      ],
      "name": "ECDSAInvalidSignatureS",
      "type": "error"
    },
    {
      "inputs": [],
      "name": "EnforcedPause",
      "type": "error"
    },
    {
      "inputs": [],
      "name": "ExpectedPause",
      "type": "error"
    },
    {
      "inputs": [],
      "name": "FailedInnerCall",
      "type": "error"
    },
    {
      "inputs": [],
      "name": "InvalidInitialization",
      "type": "error"
    },
    {
      "inputs": [],
      "name": "NotInitializing",
      "type": "error"
    },
    {
      "inputs": [
        {
          "internalType": "address",
          "name": "token",
          "type": "address"
        }
      ],
      "name": "SafeERC20FailedOperation",
      "type": "error"
    },
    {
      "anonymous": false,
      "inputs": [
        {
          "indexed": true,
          "internalType": "address",
          "name": "buyer",
          "type": "address"
        },
        {
          "indexed": false,
          "internalType": "uint256",
          "name": "amountUsdt",
          "type": "uint256"
        },
        {
          "indexed": false,
          "internalType": "uint256",
          "name": "amount",
          "type": "uint256"
        },
        {
          "indexed": false,
          "internalType": "uint256",
          "name": "discountPercent",
          "type": "uint256"
        }
      ],
      "name": "Buy",
      "type": "event"
    },
    {
      "anonymous": false,
      "inputs": [],
      "name": "EIP712DomainChanged",
      "type": "event"
    },
    {
      "anonymous": false,
      "inputs": [
        {
          "indexed": false,
          "internalType": "uint64",
          "name": "version",
          "type": "uint64"
        }
      ],
      "name": "Initialized",
      "type": "event"
    },
    {
      "anonymous": false,
      "inputs": [
        {
          "indexed": false,
          "internalType": "address",
          "name": "account",
          "type": "address"
        }
      ],
      "name": "Paused",
      "type": "event"
    },
    {
      "anonymous": false,
      "inputs": [
        {
          "indexed": true,
          "internalType": "address",
          "name": "fromBuyer",
          "type": "address"
        },
        {
          "indexed": true,
          "internalType": "address",
          "name": "to",
          "type": "address"
        },
        {
          "indexed": false,
          "internalType": "uint256",
          "name": "amountUsdt",
          "type": "uint256"
        },
        {
          "indexed": false,
          "internalType": "uint256",
          "name": "spentAmountUsdt",
          "type": "uint256"
        }
      ],
      "name": "ReferralReward",
      "type": "event"
    },
    {
      "anonymous": false,
      "inputs": [
        {
          "indexed": true,
          "internalType": "bytes32",
          "name": "role",
          "type": "bytes32"
        },
        {
          "indexed": true,
          "internalType": "bytes32",
          "name": "previousAdminRole",
          "type": "bytes32"
        },
        {
          "indexed": true,
          "internalType": "bytes32",
          "name": "newAdminRole",
          "type": "bytes32"
        }
      ],
      "name": "RoleAdminChanged",
      "type": "event"
    },
    {
      "anonymous": false,
      "inputs": [
        {
          "indexed": true,
          "internalType": "bytes32",
          "name": "role",
          "type": "bytes32"
        },
        {
          "indexed": true,
          "internalType": "address",
          "name": "account",
          "type": "address"
        },
        {
          "indexed": true,
          "internalType": "address",
          "name": "sender",
          "type": "address"
        }
      ],
      "name": "RoleGranted",
      "type": "event"
    },
    {
      "anonymous": false,
      "inputs": [
        {
          "indexed": true,
          "internalType": "bytes32",
          "name": "role",
          "type": "bytes32"
        },
        {
          "indexed": true,
          "internalType": "address",
          "name": "account",
          "type": "address"
        },
        {
          "indexed": true,
          "internalType": "address",
          "name": "sender",
          "type": "address"
        }
      ],
      "name": "RoleRevoked",
      "type": "event"
    },
    {
      "anonymous": false,
      "inputs": [
        {
          "indexed": false,
          "internalType": "address",
          "name": "account",
          "type": "address"
        }
      ],
      "name": "Unpaused",
      "type": "event"
    },
    {
      "anonymous": false,
      "inputs": [
        {
          "indexed": true,
          "internalType": "address",
          "name": "from",
          "type": "address"
        },
        {
          "indexed": true,
          "internalType": "address",
          "name": "to",
          "type": "address"
        },
        {
          "indexed": false,
          "internalType": "uint256",
          "name": "amount",
          "type": "uint256"
        }
      ],
      "name": "WithdrawUsdt",
      "type": "event"
    },
    {
      "inputs": [],
      "name": "DEFAULT_ADMIN_ROLE",
      "outputs": [
        {
          "internalType": "bytes32",
          "name": "",
          "type": "bytes32"
        }
      ],
      "stateMutability": "view",
      "type": "function"
    },
    {
      "inputs": [
        {
          "internalType": "address",
          "name": "_to",
          "type": "address"
        },
        {
          "internalType": "uint256",
          "name": "_amountUsdt",
          "type": "uint256"
        },
        {
          "internalType": "uint256",
          "name": "_discountPercent",
          "type": "uint256"
        },
        {
          "internalType": "address",
          "name": "_referralWallet",
          "type": "address"
        },
        {
          "internalType": "uint256",
          "name": "_referralRewardPercent",
          "type": "uint256"
        },
        {
          "internalType": "bytes",
          "name": "_signature",
          "type": "bytes"
        }
      ],
      "name": "buy",
      "outputs": [],
      "stateMutability": "nonpayable",
      "type": "function"
    },
    {
      "inputs": [
        {
          "internalType": "address",
          "name": "_to",
          "type": "address"
        },
        {
          "internalType": "uint256",
          "name": "_amountUsdt",
          "type": "uint256"
        },
        {
          "internalType": "uint256",
          "name": "_discountPercent",
          "type": "uint256"
        }
      ],
      "name": "buyFor",
      "outputs": [],
      "stateMutability": "nonpayable",
      "type": "function"
    },
    {
      "inputs": [],
      "name": "eip712Domain",
      "outputs": [
        {
          "internalType": "bytes1",
          "name": "fields",
          "type": "bytes1"
        },
        {
          "internalType": "string",
          "name": "name",
          "type": "string"
        },
        {
          "internalType": "string",
          "name": "version",
          "type": "string"
        },
        {
          "internalType": "uint256",
          "name": "chainId",
          "type": "uint256"
        },
        {
          "internalType": "address",
          "name": "verifyingContract",
          "type": "address"
        },
        {
          "internalType": "bytes32",
          "name": "salt",
          "type": "bytes32"
        },
        {
          "internalType": "uint256[]",
          "name": "extensions",
          "type": "uint256[]"
        }
      ],
      "stateMutability": "view",
      "type": "function"
    },
    {
      "inputs": [
        {
          "internalType": "bytes32",
          "name": "role",
          "type": "bytes32"
        }
      ],
      "name": "getRoleAdmin",
      "outputs": [
        {
          "internalType": "bytes32",
          "name": "",
          "type": "bytes32"
        }
      ],
      "stateMutability": "view",
      "type": "function"
    },
    {
      "inputs": [],
      "name": "getTokenBalance",
      "outputs": [
        {
          "internalType": "uint256",
          "name": "",
          "type": "uint256"
        }
      ],
      "stateMutability": "view",
      "type": "function"
    },
    {
      "inputs": [],
      "name": "getUsdtBalance",
      "outputs": [
        {
          "internalType": "uint256",
          "name": "",
          "type": "uint256"
        }
      ],
      "stateMutability": "view",
      "type": "function"
    },
    {
      "inputs": [
        {
          "internalType": "bytes32",
          "name": "role",
          "type": "bytes32"
        },
        {
          "internalType": "address",
          "name": "account",
          "type": "address"
        }
      ],
      "name": "grantRole",
      "outputs": [],
      "stateMutability": "nonpayable",
      "type": "function"
    },
    {
      "inputs": [
        {
          "internalType": "bytes32",
          "name": "role",
          "type": "bytes32"
        },
        {
          "internalType": "address",
          "name": "account",
          "type": "address"
        }
      ],
      "name": "hasRole",
      "outputs": [
        {
          "internalType": "bool",
          "name": "",
          "type": "bool"
        }
      ],
      "stateMutability": "view",
      "type": "function"
    },
    {
      "inputs": [
        {
          "internalType": "address",
          "name": "_admin",
          "type": "address"
        },
        {
          "internalType": "contract IERC20",
          "name": "_usdtContract",
          "type": "address"
        },
        {
          "internalType": "address",
          "name": "_treasuryWallet",
          "type": "address"
        },
        {
          "internalType": "address",
          "name": "_apiSigner",
          "type": "address"
        },
        {
          "internalType": "uint256",
          "name": "_totalTokensForSale",
          "type": "uint256"
        },
        {
          "internalType": "uint256",
          "name": "_tokenPriceUsdt",
          "type": "uint256"
        }
      ],
      "name": "initialize",
      "outputs": [],
      "stateMutability": "nonpayable",
      "type": "function"
    },
    {
      "inputs": [],
      "name": "pause",
      "outputs": [],
      "stateMutability": "nonpayable",
      "type": "function"
    },
    {
      "inputs": [],
      "name": "paused",
      "outputs": [
        {
          "internalType": "bool",
          "name": "",
          "type": "bool"
        }
      ],
      "stateMutability": "view",
      "type": "function"
    },
    {
      "inputs": [
        {
          "internalType": "bytes32",
          "name": "role",
          "type": "bytes32"
        },
        {
          "internalType": "address",
          "name": "callerConfirmation",
          "type": "address"
        }
      ],
      "name": "renounceRole",
      "outputs": [],
      "stateMutability": "nonpayable",
      "type": "function"
    },
    {
      "inputs": [
        {
          "internalType": "bytes32",
          "name": "role",
          "type": "bytes32"
        },
        {
          "internalType": "address",
          "name": "account",
          "type": "address"
        }
      ],
      "name": "revokeRole",
      "outputs": [],
      "stateMutability": "nonpayable",
      "type": "function"
    },
    {
      "inputs": [
        {
          "internalType": "address",
          "name": "_apiSigner",
          "type": "address"
        }
      ],
      "name": "setApiSigner",
      "outputs": [],
      "stateMutability": "nonpayable",
      "type": "function"
    },
    {
      "inputs": [
        {
          "internalType": "uint256",
          "name": "_tokenPriceUsdt",
          "type": "uint256"
        }
      ],
      "name": "setTokenPriceUsdt",
      "outputs": [],
      "stateMutability": "nonpayable",
      "type": "function"
    },
    {
      "inputs": [
        {
          "internalType": "bytes4",
          "name": "interfaceId",
          "type": "bytes4"
        }
      ],
      "name": "supportsInterface",
      "outputs": [
        {
          "internalType": "bool",
          "name": "",
          "type": "bool"
        }
      ],
      "stateMutability": "view",
      "type": "function"
    },
    {
      "inputs": [],
      "name": "tokenPriceUsdt",
      "outputs": [
        {
          "internalType": "uint256",
          "name": "",
          "type": "uint256"
        }
      ],
      "stateMutability": "view",
      "type": "function"
    },
    {
      "inputs": [],
      "name": "totalSoldTokens",
      "outputs": [
        {
          "internalType": "uint256",
          "name": "",
          "type": "uint256"
        }
      ],
      "stateMutability": "view",
      "type": "function"
    },
    {
      "inputs": [],
      "name": "totalTokensForSale",
      "outputs": [
        {
          "internalType": "uint256",
          "name": "",
          "type": "uint256"
        }
      ],
      "stateMutability": "view",
      "type": "function"
    },
    {
      "inputs": [],
      "name": "unpause",
      "outputs": [],
      "stateMutability": "nonpayable",
      "type": "function"
    },
    {
      "inputs": [],
      "name": "usdtContract",
      "outputs": [
        {
          "internalType": "contract IERC20",
          "name": "",
          "type": "address"
        }
      ],
      "stateMutability": "view",
      "type": "function"
    },
    {
      "inputs": [
        {
          "internalType": "address",
          "name": "_to",
          "type": "address"
        },
        {
          "internalType": "uint256",
          "name": "_amount",
          "type": "uint256"
        }
      ],
      "name": "withdrawUsdt",
      "outputs": [],
      "stateMutability": "nonpayable",
      "type": "function"
    }
  ],
  "transactionHash": "0xe733f8e16a24071e2ab47bbefc61291b2830c4a1b6d0bbefbc30ca43b48da005",
  "args": [],
  "numDeployments": 1,
  "solcInputHash": "c2b3b48738bda74354ae333500e7a316",
  "bytecode": "0x608060405234801561001057600080fd5b5061001961001e565b6100d0565b7ff0c57e16840df040f15088dc2f81fe391c3923bec73e23a9662efc9c229c6a00805468010000000000000000900460ff161561006e5760405163f92ee8a960e01b815260040160405180910390fd5b80546001600160401b03908116146100cd5780546001600160401b0319166001600160401b0390811782556040519081527fc7f505b2f371ae2175ee4913f4499e1f2633a7b5936321eed1cdaeb6115181d29060200160405180910390a15b50565b611e75806100df6000396000f3fe608060405234801561001057600080fd5b506004361061014d5760003560e01c806382b2e257116100c3578063a217fddf1161007c578063a217fddf146102b5578063a3fb5bee146102bd578063d547741f146102d0578063d7c41c79146102e3578063d7ca9949146102f6578063ed092451146102ff57600080fd5b806382b2e2571461024e5780638456cb591461026357806384b0196e1461026b5780638a7897161461028657806391d148541461028f578063935b7dbd146102a257600080fd5b80632f2ff15d116101155780632f2ff15d146101d457806336568abe146101e75780633f4ba83a146101fa5780635c975abb1461020257806360219c7b1461021a578063611509231461022357600080fd5b806301ffc9a71461015257806306292f2b1461017a5780630b984995146101995780630d4192d9146101ae578063248a9ca3146101c1575b600080fd5b61016561016036600461188b565b610312565b60405190151581526020015b60405180910390f35b336000908152600760205260409020545b604051908152602001610171565b6101ac6101a73660046118ca565b610349565b005b6101ac6101bc3660046118e7565b610377565b61018b6101cf3660046118e7565b610388565b6101ac6101e2366004611900565b6103aa565b6101ac6101f5366004611900565b6103cc565b6101ac610404565b600080516020611e208339815191525460ff16610165565b61018b60045481565b600254610236906001600160a01b031681565b6040516001600160a01b039091168152602001610171565b3360009081526006602052604090205461018b565b6101ac61041a565b61027361042d565b6040516101719796959493929190611980565b61018b60035481565b61016561029d366004611900565b6104de565b6101ac6102b0366004611a19565b610516565b61018b600081565b6101ac6102cb366004611a4e565b6105d3565b6101ac6102de366004611900565b610600565b6101ac6102f1366004611b03565b61061c565b61018b60055481565b6101ac61030d366004611b71565b6107d9565b60006001600160e01b03198216637965db0b60e01b148061034357506301ffc9a760e01b6001600160e01b03198316145b92915050565b6000610354816108c8565b50600180546001600160a01b0319166001600160a01b0392909216919091179055565b6000610382816108c8565b50600355565b6000908152600080516020611e00833981519152602052604090206001015490565b6103b382610388565b6103bc816108c8565b6103c683836108d2565b50505050565b6001600160a01b03811633146103f55760405163334bd91960e11b815260040160405180910390fd5b6103ff8282610977565b505050565b600061040f816108c8565b6104176109f3565b50565b6000610425816108c8565b610417610a53565b60006060808280808381600080516020611de0833981519152805490915015801561045a57506001810154155b6104a35760405162461bcd60e51b81526020600482015260156024820152741152540dcc4c8e88155b9a5b9a5d1a585b1a5e9959605a1b60448201526064015b60405180910390fd5b6104ab610a9c565b6104b3610b5f565b60408051600080825260208201909252600f60f81b9c939b5091995046985030975095509350915050565b6000918252600080516020611e00833981519152602090815260408084206001600160a01b0393909316845291905290205460ff1690565b6000610521816108c8565b6001600160a01b0384166105775760405162461bcd60e51b815260206004820152601a60248201527f496e76616c696420726563697069656e7420616464726573732e000000000000604482015260640161049a565b610582600a80611bc9565b8211156105c55760405162461bcd60e51b815260206004820152601160248201527024b73b30b634b2103234b9b1b7bab73a1760791b604482015260640161049a565b6103c6848484600080610b9e565b6105db610efb565b6105ea87878787878787610f2e565b6105f78787878787610b9e565b50505050505050565b61060982610388565b610612816108c8565b6103c68383610977565b7ff0c57e16840df040f15088dc2f81fe391c3923bec73e23a9662efc9c229c6a008054600160401b810460ff16159067ffffffffffffffff166000811580156106625750825b905060008267ffffffffffffffff16600114801561067f5750303b155b90508115801561068d575080155b156106ab5760405163f92ee8a960e01b815260040160405180910390fd5b845467ffffffffffffffff1916600117855583156106d557845460ff60401b1916600160401b1785555b6106dd61105a565b6106e5611062565b61073360405180604001604052806013815260200172576f726d6661726520546f6b656e2053616c6560681b815250604051806040016040528060018152602001603160f81b815250611072565b61073e60008c6108d2565b50600280546001600160a01b03808d166001600160a01b031992831617909255600080548c841690831617905560018054928b16929091169190911790556004879055600386905583156107cc57845460ff60401b19168555604051600181527fc7f505b2f371ae2175ee4913f4499e1f2633a7b5936321eed1cdaeb6115181d29060200160405180910390a15b5050505050505050505050565b6107e1610efb565b336000908152600760205260409020548111156108405760405162461bcd60e51b815260206004820152601b60248201527f4e6f7420656e6f7567682055534454206f6e2062616c616e63652e0000000000604482015260640161049a565b6108608261084d83611088565b6002546001600160a01b03169190611099565b336000908152600760205260408120805483929061087f908490611be0565b90915550506040518181526001600160a01b0383169033907fa4ebbcafcc06907d8b1e0959e51153e27ad8a599a1d2dfcb7a86dfbdfa21a7ed9060200160405180910390a35050565b61041781336110f8565b6000600080516020611e008339815191526108ed84846104de565b61096d576000848152602082815260408083206001600160a01b03871684529091529020805460ff191660011790556109233390565b6001600160a01b0316836001600160a01b0316857f2f8788117e7eff1d82e926ec794901d17c78024a50270940304540a733656f0d60405160405180910390a46001915050610343565b6000915050610343565b6000600080516020611e0083398151915261099284846104de565b1561096d576000848152602082815260408083206001600160a01b0387168085529252808320805460ff1916905551339287917ff6391f5c32d9c69d2a47ea670b442974b53935d1edc7fd64eb21e047a839171b9190a46001915050610343565b6109fb611131565b600080516020611e20833981519152805460ff191681557f5db9ee0a495bf2e6ff9c91a7834c1ba4fdd244a5e8aa4e537bd38aeae4b073aa335b6040516001600160a01b03909116815260200160405180910390a150565b610a5b610efb565b600080516020611e20833981519152805460ff191660011781557f62e78cea01bee320cd4e420270b5ea74000d11b0c9f74754ebdbfc544b05a25833610a35565b7fa16a46d94261c7517cc8ff89f61c0ce93598e3c849801011dee649a6a557d1028054606091600080516020611de083398151915291610adb90611bf3565b80601f0160208091040260200160405190810160405280929190818152602001828054610b0790611bf3565b8015610b545780601f10610b2957610100808354040283529160200191610b54565b820191906000526020600020905b815481529060010190602001808311610b3757829003601f168201915b505050505091505090565b7fa16a46d94261c7517cc8ff89f61c0ce93598e3c849801011dee649a6a557d1038054606091600080516020611de083398151915291610adb90611bf3565b60008411610be25760405162461bcd60e51b81526020600482015260116024820152702aa9a22a1030b6b7bab73a1034b990181760791b604482015260640161049a565b610beb84611088565b600254604051636eb1769f60e11b81523360048201523060248201526001600160a01b039091169063dd62ed3e90604401602060405180830381865afa158015610c39573d6000803e3d6000fd5b505050506040513d601f19601f82011682018060405250810190610c5d9190611c2d565b1015610cab5760405162461bcd60e51b815260206004820152601a60248201527f4e6f7420656e6f756768205553445420616c6c6f77616e63652e000000000000604482015260640161049a565b60045460055410610cea5760405162461bcd60e51b815260206004820152600960248201526829b7b6321037baba1760b91b604482015260640161049a565b801580610cff57506001600160a01b03851633145b610d5e5760405162461bcd60e51b815260206004820152602a60248201527f526566657272616c2070726f6772616d2069732064697361626c656420696e206044820152693a3434b99036b7b2329760b11b606482015260840161049a565b610d6784611161565b93506000600a606485600354610d7d9190611bc9565b610d879190611c46565b610d919190611c46565b600354610d9e9190611be0565b9050600081610db587670de0b6b3a7640000611bc9565b610dbf9190611c46565b905060045481600554610dd29190611c68565b1115610e1157600060045482600554610deb9190611c68565b610df59190611be0565b9050610e018183611be0565b9150610e0d828461117b565b9650505b856001600160a01b03851615610e3057610e2d878387876111a1565b90505b600054610e5f9033906001600160a01b0316610e4b84611088565b6002546001600160a01b0316929190611297565b6001600160a01b03881660009081526006602052604081208054849290610e87908490611c68565b925050819055508160056000828254610ea09190611c68565b909155505060408051888152602081018490529081018790526001600160a01b038916907fbeae048c6d270d9469f86cf6e8fedda3c60ad770f16c24c9fc131c8e9a09101d9060600160405180910390a25050505050505050565b600080516020611e208339815191525460ff1615610f2c5760405163d93c066560e01b815260040160405180910390fd5b565b604080517f296637de953fa96c6821a8a3551ddd0ec0ae92b33291a00df14c9a9dad131a9860208201526001600160a01b03808a1692820192909252606081018890526080810187905290851660a082015260c081018490523360e0820152600090610fb39061010001604051602081830303815290604052805190602001206112d0565b600154604080516020601f87018190048102820181019092528581529293506001600160a01b03909116916110059184919087908790819084018382808284376000920191909152506112fd92505050565b6001600160a01b0316146110505760405162461bcd60e51b815260206004820152601260248201527124b73b30b634b21039b4b3b730ba3ab9329760711b604482015260640161049a565b5050505050505050565b610f2c611327565b61106a611327565b610f2c611370565b61107a611327565b6110848282611391565b5050565b600061034364e8d4a5100083611c46565b6040516001600160a01b038381166024830152604482018390526103ff91859182169063a9059cbb906064015b604051602081830303815290604052915060e01b6020820180516001600160e01b0383818316178352505050506113f2565b61110282826104de565b6110845760405163e2517d3f60e01b81526001600160a01b03821660048201526024810183905260440161049a565b600080516020611e208339815191525460ff16610f2c57604051638dfc202b60e01b815260040160405180910390fd5b600061116c82611088565b6103439064e8d4a51000611bc9565b6000670de0b6b3a76400006111908385611bc9565b61119a9190611c46565b9392505050565b60008481600a60646111b38689611bc9565b6111bd9190611c46565b6111c79190611c46565b905060006111f5600a60646111dc888c611bc9565b6111e69190611c46565b6111f09190611c46565b611161565b6001600160a01b038716600090815260076020526040812080549194509192508291908490611225908490611c68565b9091555061123590508184611be0565b92506112453330610e4b84611088565b60408051828152602081018a90526001600160a01b0388169133917fbd7e5be34537a425747cf06d84eca4d59c865e2002b7d5f36f14558bdc5ae8cd910160405180910390a350909695505050505050565b6040516001600160a01b0384811660248301528381166044830152606482018390526103c69186918216906323b872dd906084016110c6565b60006103436112dd611455565b8360405161190160f01b8152600281019290925260228201526042902090565b60008060008061130d8686611464565b92509250925061131d82826114b1565b5090949350505050565b7ff0c57e16840df040f15088dc2f81fe391c3923bec73e23a9662efc9c229c6a0054600160401b900460ff16610f2c57604051631afcd79f60e31b815260040160405180910390fd5b611378611327565b600080516020611e20833981519152805460ff19169055565b611399611327565b600080516020611de08339815191527fa16a46d94261c7517cc8ff89f61c0ce93598e3c849801011dee649a6a557d1026113d38482611ccb565b50600381016113e28382611ccb565b5060008082556001909101555050565b60006114076001600160a01b0384168361156a565b9050805160001415801561142c57508080602001905181019061142a9190611d8b565b155b156103ff57604051635274afe760e01b81526001600160a01b038416600482015260240161049a565b600061145f611578565b905090565b6000806000835160410361149e5760208401516040850151606086015160001a611490888285856115ec565b9550955095505050506114aa565b50508151600091506002905b9250925092565b60008260038111156114c5576114c5611dad565b036114ce575050565b60018260038111156114e2576114e2611dad565b036115005760405163f645eedf60e01b815260040160405180910390fd5b600282600381111561151457611514611dad565b036115355760405163fce698f760e01b81526004810182905260240161049a565b600382600381111561154957611549611dad565b03611084576040516335e2f38360e21b81526004810182905260240161049a565b606061119a838360006116bb565b60007f8b73c3c69bb8fe3d512ecc4cf759cc79239f7b179b0ffacaa9a75d522b39400f6115a3611758565b6115ab6117c2565b60408051602081019490945283019190915260608201524660808201523060a082015260c00160405160208183030381529060405280519060200120905090565b600080807f7fffffffffffffffffffffffffffffff5d576e7357a4501ddfe92f46681b20a084111561162757506000915060039050826116b1565b604080516000808252602082018084528a905260ff891692820192909252606081018790526080810186905260019060a0016020604051602081039080840390855afa15801561167b573d6000803e3d6000fd5b5050604051601f1901519150506001600160a01b0381166116a7575060009250600191508290506116b1565b9250600091508190505b9450945094915050565b6060814710156116e05760405163cd78605960e01b815230600482015260240161049a565b600080856001600160a01b031684866040516116fc9190611dc3565b60006040518083038185875af1925050503d8060008114611739576040519150601f19603f3d011682016040523d82523d6000602084013e61173e565b606091505b509150915061174e868383611806565b9695505050505050565b6000600080516020611de083398151915281611772610a9c565b80519091501561178a57805160209091012092915050565b81548015611799579392505050565b7fc5d2460186f7233c927e7db2dcc703c0e500b653ca82273b7bfad8045d85a470935050505090565b6000600080516020611de0833981519152816117dc610b5f565b8051909150156117f457805160209091012092915050565b60018201548015611799579392505050565b60608261181b5761181682611862565b61119a565b815115801561183257506001600160a01b0384163b155b1561185b57604051639996b31560e01b81526001600160a01b038516600482015260240161049a565b508061119a565b8051156118725780518082602001fd5b604051630a12f52160e11b815260040160405180910390fd5b60006020828403121561189d57600080fd5b81356001600160e01b03198116811461119a57600080fd5b6001600160a01b038116811461041757600080fd5b6000602082840312156118dc57600080fd5b813561119a816118b5565b6000602082840312156118f957600080fd5b5035919050565b6000806040838503121561191357600080fd5b823591506020830135611925816118b5565b809150509250929050565b60005b8381101561194b578181015183820152602001611933565b50506000910152565b6000815180845261196c816020860160208601611930565b601f01601f19169290920160200192915050565b60ff60f81b881681526000602060e060208401526119a160e084018a611954565b83810360408501526119b3818a611954565b606085018990526001600160a01b038816608086015260a0850187905284810360c08601528551808252602080880193509091019060005b81811015611a07578351835292840192918401916001016119eb565b50909c9b505050505050505050505050565b600080600060608486031215611a2e57600080fd5b8335611a39816118b5565b95602085013595506040909401359392505050565b600080600080600080600060c0888a031215611a6957600080fd5b8735611a74816118b5565b965060208801359550604088013594506060880135611a92816118b5565b93506080880135925060a088013567ffffffffffffffff80821115611ab657600080fd5b818a0191508a601f830112611aca57600080fd5b813581811115611ad957600080fd5b8b6020828501011115611aeb57600080fd5b60208301945080935050505092959891949750929550565b60008060008060008060c08789031215611b1c57600080fd5b8635611b27816118b5565b95506020870135611b37816118b5565b94506040870135611b47816118b5565b93506060870135611b57816118b5565b9598949750929560808101359460a0909101359350915050565b60008060408385031215611b8457600080fd5b8235611b8f816118b5565b946020939093013593505050565b634e487b7160e01b600052604160045260246000fd5b634e487b7160e01b600052601160045260246000fd5b808202811582820484141761034357610343611bb3565b8181038181111561034357610343611bb3565b600181811c90821680611c0757607f821691505b602082108103611c2757634e487b7160e01b600052602260045260246000fd5b50919050565b600060208284031215611c3f57600080fd5b5051919050565b600082611c6357634e487b7160e01b600052601260045260246000fd5b500490565b8082018082111561034357610343611bb3565b601f8211156103ff576000816000526020600020601f850160051c81016020861015611ca45750805b601f850160051c820191505b81811015611cc357828155600101611cb0565b505050505050565b815167ffffffffffffffff811115611ce557611ce5611b9d565b611cf981611cf38454611bf3565b84611c7b565b602080601f831160018114611d2e5760008415611d165750858301515b600019600386901b1c1916600185901b178555611cc3565b600085815260208120601f198616915b82811015611d5d57888601518255948401946001909101908401611d3e565b5085821015611d7b5787850151600019600388901b60f8161c191681555b5050505050600190811b01905550565b600060208284031215611d9d57600080fd5b8151801515811461119a57600080fd5b634e487b7160e01b600052602160045260246000fd5b60008251611dd5818460208701611930565b919091019291505056fea16a46d94261c7517cc8ff89f61c0ce93598e3c849801011dee649a6a557d10002dd7bc7dec4dceedda775e58dd541e08a116c6c53815c0bd028192f7b626800cd5ed15c6e187e77e9aee88184c21f4f2182ab5827cb3b7e07fbedcd63f03300a2646970667358221220670da02663eedf5415db52fb2c562cf5f56245204197c68a187873f40b703e5a64736f6c63430008170033",
  "devdoc": {
    "errors": {
      "AccessControlBadConfirmation()": [
        {
          "details": "The caller of a function is not the expected one. NOTE: Don't confuse with {AccessControlUnauthorizedAccount}."
        }
      ],
      "AccessControlUnauthorizedAccount(address,bytes32)": [
        {
          "details": "The `account` is missing a role."
        }
      ],
      "AddressEmptyCode(address)": [
        {
          "details": "There's no code at `target` (it is not a contract)."
        }
      ],
      "AddressInsufficientBalance(address)": [
        {
          "details": "The ETH balance of the account is not enough to perform the operation."
        }
      ],
      "ECDSAInvalidSignature()": [
        {
          "details": "The signature derives the `address(0)`."
        }
      ],
      "ECDSAInvalidSignatureLength(uint256)": [
        {
          "details": "The signature has an invalid length."
        }
      ],
      "ECDSAInvalidSignatureS(bytes32)": [
        {
          "details": "The signature has an S value that is in the upper half order."
        }
      ],
      "EnforcedPause()": [
        {
          "details": "The operation failed because the contract is paused."
        }
      ],
      "ExpectedPause()": [
        {
          "details": "The operation failed because the contract is not paused."
        }
      ],
      "FailedInnerCall()": [
        {
          "details": "A call to an address target failed. The target may have reverted."
        }
      ],
      "InvalidInitialization()": [
        {
          "details": "The contract is already initialized."
        }
      ],
      "NotInitializing()": [
        {
          "details": "The contract is not initializing."
        }
      ],
      "SafeERC20FailedOperation(address)": [
        {
          "details": "An operation with an ERC20 token failed."
        }
      ]
    },
    "events": {
      "EIP712DomainChanged()": {
        "details": "MAY be emitted to signal that the domain could have changed."
      },
      "Initialized(uint64)": {
        "details": "Triggered when the contract has been initialized or reinitialized."
      },
      "Paused(address)": {
        "details": "Emitted when the pause is triggered by `account`."
      },
      "RoleAdminChanged(bytes32,bytes32,bytes32)": {
        "details": "Emitted when `newAdminRole` is set as ``role``'s admin role, replacing `previousAdminRole` `DEFAULT_ADMIN_ROLE` is the starting admin for all roles, despite {RoleAdminChanged} not being emitted signaling this."
      },
      "RoleGranted(bytes32,address,address)": {
        "details": "Emitted when `account` is granted `role`. `sender` is the account that originated the contract call, an admin role bearer except when using {AccessControl-_setupRole}."
      },
      "RoleRevoked(bytes32,address,address)": {
        "details": "Emitted when `account` is revoked `role`. `sender` is the account that originated the contract call:   - if using `revokeRole`, it is the admin role bearer   - if using `renounceRole`, it is the role bearer (i.e. `account`)"
      },
      "Unpaused(address)": {
        "details": "Emitted when the pause is lifted by `account`."
      }
    },
    "kind": "dev",
    "methods": {
      "buy(address,uint256,uint256,address,uint256,bytes)": {
        "params": {
          "_amountUsdt": "USDT amount the user wants to spend.",
          "_discountPercent": "Applied discount for buyer (multiplied by 10).",
          "_referralRewardPercent": "Percentage of bought amount the referral account should receive as a reward.",
          "_referralWallet": "Referral wallet (or zero address).",
          "_signature": "API signature.",
          "_to": "Tokens receiver."
        }
      },
      "buyFor(address,uint256,uint256)": {
        "params": {
          "_amountUsdt": "USDT amount.",
          "_discountPercent": "Discount percent (multiplied by 10).",
          "_to": "Tokens receiver."
        }
      },
      "constructor": {
        "custom:oz-upgrades-unsafe-allow": "constructor"
      },
      "eip712Domain()": {
        "details": "See {IERC-5267}."
      },
      "getRoleAdmin(bytes32)": {
        "details": "Returns the admin role that controls `role`. See {grantRole} and {revokeRole}. To change a role's admin, use {_setRoleAdmin}."
      },
      "grantRole(bytes32,address)": {
        "details": "Grants `role` to `account`. If `account` had not been already granted `role`, emits a {RoleGranted} event. Requirements: - the caller must have ``role``'s admin role. May emit a {RoleGranted} event."
      },
      "hasRole(bytes32,address)": {
        "details": "Returns `true` if `account` has been granted `role`."
      },
      "initialize(address,address,address,address,uint256,uint256)": {
        "params": {
          "_admin": "Admin wallet address.",
          "_apiSigner": "API signer wallet address.",
          "_tokenPriceUsdt": "USDT price for 10**18 tokens (should use 18 decimals).",
          "_totalTokensForSale": "Total amount of tokens this contract may sell.",
          "_treasuryWallet": "Wallet that will receive all incoming USDT.",
          "_usdtContract": "USDT contract address."
        }
      },
      "paused()": {
        "details": "Returns true if the contract is paused, and false otherwise."
      },
      "renounceRole(bytes32,address)": {
        "details": "Revokes `role` from the calling account. Roles are often managed via {grantRole} and {revokeRole}: this function's purpose is to provide a mechanism for accounts to lose their privileges if they are compromised (such as when a trusted device is misplaced). If the calling account had been revoked `role`, emits a {RoleRevoked} event. Requirements: - the caller must be `callerConfirmation`. May emit a {RoleRevoked} event."
      },
      "revokeRole(bytes32,address)": {
        "details": "Revokes `role` from `account`. If `account` had been granted `role`, emits a {RoleRevoked} event. Requirements: - the caller must have ``role``'s admin role. May emit a {RoleRevoked} event."
      },
      "supportsInterface(bytes4)": {
        "details": "See {IERC165-supportsInterface}."
      },
      "withdrawUsdt(address,uint256)": {
        "params": {
          "_amount": "USDT amount to withdraw. Should be 18 decimals here.",
          "_to": "Receiver address."
        }
      }
    },
    "stateVariables": {
      "apiSigner": {
        "details": "API wallet address."
      },
      "tokenBalances": {
        "details": "Bought tokens + referral rewards in tokens."
      },
      "tokenPriceUsdt": {
        "details": "Token price in USDT. 18 decimals should be used here, though USDT has 6 decimals."
      },
      "totalSoldTokens": {
        "details": "Sold tokens amount."
      },
      "totalTokensForSale": {
        "details": "Total amount of tokens this contract may sell."
      },
      "treasuryWallet": {
        "details": "Wallet that all incoming USDT will be transfered to."
      },
      "usdtBalances": {
        "details": "USDT referral rewards."
      },
      "usdtContract": {
        "details": "USDT contract address."
      }
    },
    "version": 1
  },
  "userdoc": {
    "kind": "user",
    "methods": {
      "buy(address,uint256,uint256,address,uint256,bytes)": {
        "notice": "Buy tokens using USDT."
      },
      "buyFor(address,uint256,uint256)": {
        "notice": "Buy tokens for someone else (admin only)."
      },
      "getTokenBalance()": {
        "notice": "Returns sender's token balance."
      },
      "getUsdtBalance()": {
        "notice": "Returns sender's USDT balance. Return value uses 18 decimals."
      },
      "pause()": {
        "notice": "Disable some contract functions."
      },
      "setApiSigner(address)": {
        "notice": "Update apiSigner address."
      },
      "setTokenPriceUsdt(uint256)": {
        "notice": "Update token price in USDT. 18 decimals should be used here."
      },
      "unpause()": {
        "notice": "Enable all contract functions."
      },
      "withdrawUsdt(address,uint256)": {
        "notice": "Withdraw USDT rewards."
      }
    },
    "version": 1
  },
  "storageLayout": {
    "storage": [
      {
        "astId": 3859,
        "contract": "contracts/TokenSale.sol:TokenSale",
        "label": "treasuryWallet",
        "offset": 0,
        "slot": "0",
        "type": "t_address"
      },
      {
        "astId": 3862,
        "contract": "contracts/TokenSale.sol:TokenSale",
        "label": "apiSigner",
        "offset": 0,
        "slot": "1",
        "type": "t_address"
      },
      {
        "astId": 3866,
        "contract": "contracts/TokenSale.sol:TokenSale",
        "label": "usdtContract",
        "offset": 0,
        "slot": "2",
        "type": "t_contract(IERC20)1400"
      },
      {
        "astId": 3869,
        "contract": "contracts/TokenSale.sol:TokenSale",
        "label": "tokenPriceUsdt",
        "offset": 0,
        "slot": "3",
        "type": "t_uint256"
      },
      {
        "astId": 3872,
        "contract": "contracts/TokenSale.sol:TokenSale",
        "label": "totalTokensForSale",
        "offset": 0,
        "slot": "4",
        "type": "t_uint256"
      },
      {
        "astId": 3875,
        "contract": "contracts/TokenSale.sol:TokenSale",
        "label": "totalSoldTokens",
        "offset": 0,
        "slot": "5",
        "type": "t_uint256"
      },
      {
        "astId": 3880,
        "contract": "contracts/TokenSale.sol:TokenSale",
        "label": "tokenBalances",
        "offset": 0,
        "slot": "6",
        "type": "t_mapping(t_address,t_uint256)"
      },
      {
        "astId": 3885,
        "contract": "contracts/TokenSale.sol:TokenSale",
        "label": "usdtBalances",
        "offset": 0,
        "slot": "7",
        "type": "t_mapping(t_address,t_uint256)"
      }
    ],
    "types": {
      "t_address": {
        "encoding": "inplace",
        "label": "address",
        "numberOfBytes": "20"
      },
      "t_contract(IERC20)1400": {
        "encoding": "inplace",
        "label": "contract IERC20",
        "numberOfBytes": "20"
      },
      "t_mapping(t_address,t_uint256)": {
        "encoding": "mapping",
        "key": "t_address",
        "label": "mapping(address => uint256)",
        "numberOfBytes": "32",
        "value": "t_uint256"
      },
      "t_uint256": {
        "encoding": "inplace",
        "label": "uint256",
        "numberOfBytes": "32"
      }
    }
  }
}