{
  "address": "0x3e400dE4bff6F66F5E18687c6fbF9F3067A18286",
  "abi": [
    {
      "inputs": [],
      "stateMutability": "nonpayable",
      "type": "constructor"
    },
    {
      "inputs": [
        {
          "internalType": "address",
          "name": "sender",
          "type": "address"
        },
        {
          "internalType": "uint256",
          "name": "tokenId",
          "type": "uint256"
        },
        {
          "internalType": "address",
          "name": "owner",
          "type": "address"
        }
      ],
      "name": "ERC721IncorrectOwner",
      "type": "error"
    },
    {
      "inputs": [
        {
          "internalType": "address",
          "name": "operator",
          "type": "address"
        },
        {
          "internalType": "uint256",
          "name": "tokenId",
          "type": "uint256"
        }
      ],
      "name": "ERC721InsufficientApproval",
      "type": "error"
    },
    {
      "inputs": [
        {
          "internalType": "address",
          "name": "approver",
          "type": "address"
        }
      ],
      "name": "ERC721InvalidApprover",
      "type": "error"
    },
    {
      "inputs": [
        {
          "internalType": "address",
          "name": "operator",
          "type": "address"
        }
      ],
      "name": "ERC721InvalidOperator",
      "type": "error"
    },
    {
      "inputs": [
        {
          "internalType": "address",
          "name": "owner",
          "type": "address"
        }
      ],
      "name": "ERC721InvalidOwner",
      "type": "error"
    },
    {
      "inputs": [
        {
          "internalType": "address",
          "name": "receiver",
          "type": "address"
        }
      ],
      "name": "ERC721InvalidReceiver",
      "type": "error"
    },
    {
      "inputs": [
        {
          "internalType": "address",
          "name": "sender",
          "type": "address"
        }
      ],
      "name": "ERC721InvalidSender",
      "type": "error"
    },
    {
      "inputs": [
        {
          "internalType": "uint256",
          "name": "tokenId",
          "type": "uint256"
        }
      ],
      "name": "ERC721NonexistentToken",
      "type": "error"
    },
    {
      "inputs": [],
      "name": "InvalidInitialization",
      "type": "error"
    },
    {
      "inputs": [],
      "name": "NotInitializing",
      "type": "error"
    },
    {
      "inputs": [
        {
          "internalType": "address",
          "name": "owner",
          "type": "address"
        }
      ],
      "name": "OwnableInvalidOwner",
      "type": "error"
    },
    {
      "inputs": [
        {
          "internalType": "address",
          "name": "account",
          "type": "address"
        }
      ],
      "name": "OwnableUnauthorizedAccount",
      "type": "error"
    },
    {
      "anonymous": false,
      "inputs": [
        {
          "indexed": true,
          "internalType": "address",
          "name": "owner",
          "type": "address"
        },
        {
          "indexed": true,
          "internalType": "address",
          "name": "approved",
          "type": "address"
        },
        {
          "indexed": true,
          "internalType": "uint256",
          "name": "tokenId",
          "type": "uint256"
        }
      ],
      "name": "Approval",
      "type": "event"
    },
    {
      "anonymous": false,
      "inputs": [
        {
          "indexed": true,
          "internalType": "address",
          "name": "owner",
          "type": "address"
        },
        {
          "indexed": true,
          "internalType": "address",
          "name": "operator",
          "type": "address"
        },
        {
          "indexed": false,
          "internalType": "bool",
          "name": "approved",
          "type": "bool"
        }
      ],
      "name": "ApprovalForAll",
      "type": "event"
    },
    {
      "anonymous": false,
      "inputs": [
        {
          "indexed": false,
          "internalType": "uint256",
          "name": "_fromTokenId",
          "type": "uint256"
        },
        {
          "indexed": false,
          "internalType": "uint256",
          "name": "_toTokenId",
          "type": "uint256"
        }
      ],
      "name": "BatchMetadataUpdate",
      "type": "event"
    },
    {
      "anonymous": false,
      "inputs": [
        {
          "indexed": false,
          "internalType": "uint64",
          "name": "version",
          "type": "uint64"
        }
      ],
      "name": "Initialized",
      "type": "event"
    },
    {
      "anonymous": false,
      "inputs": [
        {
          "indexed": false,
          "internalType": "uint256",
          "name": "_tokenId",
          "type": "uint256"
        }
      ],
      "name": "MetadataUpdate",
      "type": "event"
    },
    {
      "anonymous": false,
      "inputs": [
        {
          "indexed": true,
          "internalType": "address",
          "name": "previousOwner",
          "type": "address"
        },
        {
          "indexed": true,
          "internalType": "address",
          "name": "newOwner",
          "type": "address"
        }
      ],
      "name": "OwnershipTransferred",
      "type": "event"
    },
    {
      "anonymous": false,
      "inputs": [
        {
          "indexed": true,
          "internalType": "address",
          "name": "from",
          "type": "address"
        },
        {
          "indexed": true,
          "internalType": "address",
          "name": "to",
          "type": "address"
        },
        {
          "indexed": true,
          "internalType": "uint256",
          "name": "tokenId",
          "type": "uint256"
        }
      ],
      "name": "Transfer",
      "type": "event"
    },
    {
      "inputs": [
        {
          "internalType": "address",
          "name": "to",
          "type": "address"
        },
        {
          "internalType": "uint256",
          "name": "tokenId",
          "type": "uint256"
        }
      ],
      "name": "approve",
      "outputs": [],
      "stateMutability": "nonpayable",
      "type": "function"
    },
    {
      "inputs": [
        {
          "internalType": "address",
          "name": "owner",
          "type": "address"
        }
      ],
      "name": "balanceOf",
      "outputs": [
        {
          "internalType": "uint256",
          "name": "",
          "type": "uint256"
        }
      ],
      "stateMutability": "view",
      "type": "function"
    },
    {
      "inputs": [
        {
          "internalType": "address",
          "name": "_to",
          "type": "address"
        },
        {
          "internalType": "uint256[]",
          "name": "_tokenIds",
          "type": "uint256[]"
        },
        {
          "internalType": "string[]",
          "name": "_uris",
          "type": "string[]"
        }
      ],
      "name": "batchMint",
      "outputs": [],
      "stateMutability": "nonpayable",
      "type": "function"
    },
    {
      "inputs": [
        {
          "internalType": "uint256",
          "name": "tokenId",
          "type": "uint256"
        }
      ],
      "name": "getApproved",
      "outputs": [
        {
          "internalType": "address",
          "name": "",
          "type": "address"
        }
      ],
      "stateMutability": "view",
      "type": "function"
    },
    {
      "inputs": [
        {
          "internalType": "address",
          "name": "_owner",
          "type": "address"
        },
        {
          "internalType": "address",
          "name": "_minter",
          "type": "address"
        }
      ],
      "name": "initialize",
      "outputs": [],
      "stateMutability": "nonpayable",
      "type": "function"
    },
    {
      "inputs": [
        {
          "internalType": "address",
          "name": "owner",
          "type": "address"
        },
        {
          "internalType": "address",
          "name": "operator",
          "type": "address"
        }
      ],
      "name": "isApprovedForAll",
      "outputs": [
        {
          "internalType": "bool",
          "name": "",
          "type": "bool"
        }
      ],
      "stateMutability": "view",
      "type": "function"
    },
    {
      "inputs": [],
      "name": "name",
      "outputs": [
        {
          "internalType": "string",
          "name": "",
          "type": "string"
        }
      ],
      "stateMutability": "view",
      "type": "function"
    },
    {
      "inputs": [],
      "name": "owner",
      "outputs": [
        {
          "internalType": "address",
          "name": "",
          "type": "address"
        }
      ],
      "stateMutability": "view",
      "type": "function"
    },
    {
      "inputs": [
        {
          "internalType": "uint256",
          "name": "tokenId",
          "type": "uint256"
        }
      ],
      "name": "ownerOf",
      "outputs": [
        {
          "internalType": "address",
          "name": "",
          "type": "address"
        }
      ],
      "stateMutability": "view",
      "type": "function"
    },
    {
      "inputs": [],
      "name": "renounceOwnership",
      "outputs": [],
      "stateMutability": "nonpayable",
      "type": "function"
    },
    {
      "inputs": [
        {
          "internalType": "address",
          "name": "from",
          "type": "address"
        },
        {
          "internalType": "address",
          "name": "to",
          "type": "address"
        },
        {
          "internalType": "uint256",
          "name": "tokenId",
          "type": "uint256"
        }
      ],
      "name": "safeTransferFrom",
      "outputs": [],
      "stateMutability": "nonpayable",
      "type": "function"
    },
    {
      "inputs": [
        {
          "internalType": "address",
          "name": "from",
          "type": "address"
        },
        {
          "internalType": "address",
          "name": "to",
          "type": "address"
        },
        {
          "internalType": "uint256",
          "name": "tokenId",
          "type": "uint256"
        },
        {
          "internalType": "bytes",
          "name": "data",
          "type": "bytes"
        }
      ],
      "name": "safeTransferFrom",
      "outputs": [],
      "stateMutability": "nonpayable",
      "type": "function"
    },
    {
      "inputs": [
        {
          "internalType": "address",
          "name": "operator",
          "type": "address"
        },
        {
          "internalType": "bool",
          "name": "approved",
          "type": "bool"
        }
      ],
      "name": "setApprovalForAll",
      "outputs": [],
      "stateMutability": "nonpayable",
      "type": "function"
    },
    {
      "inputs": [
        {
          "internalType": "bytes4",
          "name": "interfaceId",
          "type": "bytes4"
        }
      ],
      "name": "supportsInterface",
      "outputs": [
        {
          "internalType": "bool",
          "name": "",
          "type": "bool"
        }
      ],
      "stateMutability": "view",
      "type": "function"
    },
    {
      "inputs": [],
      "name": "symbol",
      "outputs": [
        {
          "internalType": "string",
          "name": "",
          "type": "string"
        }
      ],
      "stateMutability": "view",
      "type": "function"
    },
    {
      "inputs": [
        {
          "internalType": "uint256",
          "name": "tokenId",
          "type": "uint256"
        }
      ],
      "name": "tokenURI",
      "outputs": [
        {
          "internalType": "string",
          "name": "",
          "type": "string"
        }
      ],
      "stateMutability": "view",
      "type": "function"
    },
    {
      "inputs": [
        {
          "internalType": "address",
          "name": "from",
          "type": "address"
        },
        {
          "internalType": "address",
          "name": "to",
          "type": "address"
        },
        {
          "internalType": "uint256",
          "name": "tokenId",
          "type": "uint256"
        }
      ],
      "name": "transferFrom",
      "outputs": [],
      "stateMutability": "nonpayable",
      "type": "function"
    },
    {
      "inputs": [
        {
          "internalType": "address",
          "name": "newOwner",
          "type": "address"
        }
      ],
      "name": "transferOwnership",
      "outputs": [],
      "stateMutability": "nonpayable",
      "type": "function"
    }
  ],
  "transactionHash": "0x70397fcceb378d00785e51db220f50c617304c084e7bda610bb30916c6b8b15f",
  "args": [],
  "numDeployments": 1,
  "solcInputHash": "0ee8391a58d9f1c4ad5f1a336746d13e",
  "bytecode": "0x608060405234801561001057600080fd5b5061001961001e565b6100d0565b7ff0c57e16840df040f15088dc2f81fe391c3923bec73e23a9662efc9c229c6a00805468010000000000000000900460ff161561006e5760405163f92ee8a960e01b815260040160405180910390fd5b80546001600160401b03908116146100cd5780546001600160401b0319166001600160401b0390811782556040519081527fc7f505b2f371ae2175ee4913f4499e1f2633a7b5936321eed1cdaeb6115181d29060200160405180910390a15b50565b611a58806100df6000396000f3fe608060405234801561001057600080fd5b50600436106101165760003560e01c8063715018a6116100a2578063a22cb46511610071578063a22cb46514610258578063b88d4fde1461026b578063c87b56dd1461027e578063e985e9c514610291578063f2fde38b146102a457600080fd5b8063715018a6146102055780638da5cb5b1461020d57806395d89b411461023d5780639caea80a1461024557600080fd5b806323b872dd116100e957806323b872dd1461019857806342842e0e146101ab578063485cc955146101be5780636352211e146101d157806370a08231146101e457600080fd5b806301ffc9a71461011b57806306fdde0314610143578063081812fc14610158578063095ea7b314610183575b600080fd5b61012e61012936600461144d565b6102b7565b60405190151581526020015b60405180910390f35b61014b6102c8565b60405161013a91906114ba565b61016b6101663660046114cd565b61036c565b6040516001600160a01b03909116815260200161013a565b610196610191366004611502565b610381565b005b6101966101a636600461152c565b610390565b6101966101b936600461152c565b610420565b6101966101cc366004611568565b610440565b61016b6101df3660046114cd565b6105c1565b6101f76101f236600461159b565b6105cc565b60405190815260200161013a565b610196610628565b7f9016d09d72d40fdae2fd8ceac6b6234c7706214fd39c1cd1e609a0528c199300546001600160a01b031661016b565b61014b61063c565b610196610253366004611602565b61067b565b610196610266366004611683565b6107f6565b6101966102793660046116d5565b610801565b61014b61028c3660046114cd565b610818565b61012e61029f366004611568565b610823565b6101966102b236600461159b565b610870565b60006102c2826108ae565b92915050565b600080516020611a0383398151915280546060919081906102e8906117b1565b80601f0160208091040260200160405190810160405280929190818152602001828054610314906117b1565b80156103615780601f1061033657610100808354040283529160200191610361565b820191906000526020600020905b81548152906001019060200180831161034457829003601f168201915b505050505091505090565b6000610377826108d3565b506102c28261090b565b61038c828233610945565b5050565b6001600160a01b0382166103bf57604051633250574960e11b8152600060048201526024015b60405180910390fd5b60006103cc838333610952565b9050836001600160a01b0316816001600160a01b03161461041a576040516364283d7b60e01b81526001600160a01b03808616600483015260248201849052821660448201526064016103b6565b50505050565b61043b83838360405180602001604052806000815250610801565b505050565b7ff0c57e16840df040f15088dc2f81fe391c3923bec73e23a9662efc9c229c6a008054600160401b810460ff16159067ffffffffffffffff166000811580156104865750825b905060008267ffffffffffffffff1660011480156104a35750303b155b9050811580156104b1575080155b156104cf5760405163f92ee8a960e01b815260040160405180910390fd5b845467ffffffffffffffff1916600117855583156104f957845460ff60401b1916600160401b1785555b6105466040518060400160405280601081526020016f576f726d666172652047656e6573697360801b8152506040518060400160405280600381526020016257464760e81b815250610a5c565b61054e610a6e565b61055787610a76565b600180546001600160a01b0319166001600160a01b03881617905583156105b857845460ff60401b19168555604051600181527fc7f505b2f371ae2175ee4913f4499e1f2633a7b5936321eed1cdaeb6115181d29060200160405180910390a15b50505050505050565b60006102c2826108d3565b6000600080516020611a038339815191526001600160a01b038316610607576040516322718ad960e21b8152600060048201526024016103b6565b6001600160a01b039092166000908152600390920160205250604090205490565b610630610a87565b61063a6000610ae2565b565b7f80bb2b638cc20bc4d0a60d66940f3ab4a00c1d7b313497ca82fb0b4ab00793018054606091600080516020611a03833981519152916102e8906117b1565b6001546001600160a01b031633146106c75760405162461bcd60e51b815260206004820152600f60248201526e24b73b30b634b21039b2b73232b91760891b60448201526064016103b6565b6000546064906106d89085906117eb565b11156107265760405162461bcd60e51b815260206004820152601b60248201527f556e61626c6520746f206d696e74206d6f726520746f6b656e732e000000000060448201526064016103b6565b60005b838110156107d557610753868686848181106107475761074761180c565b90506020020135610b53565b6107cd8585838181106107685761076861180c565b905060200201358484848181106107815761078161180c565b90506020028101906107939190611822565b8080601f016020809104026020016040519081016040528093929190818152602001838380828437600092019190915250610b6d92505050565b600101610729565b50838390506000808282546107ea91906117eb565b90915550505050505050565b61038c338383610be0565b61080c848484610390565b61041a84848484610c91565b60606102c282610dba565b6001600160a01b0391821660009081527f80bb2b638cc20bc4d0a60d66940f3ab4a00c1d7b313497ca82fb0b4ab00793056020908152604080832093909416825291909152205460ff1690565b610878610a87565b6001600160a01b0381166108a257604051631e4fbdf760e01b8152600060048201526024016103b6565b6108ab81610ae2565b50565b60006001600160e01b03198216632483248360e11b14806102c257506102c282610eef565b6000806108df83610f3f565b90506001600160a01b0381166102c257604051637e27328960e01b8152600481018490526024016103b6565b60009081527f80bb2b638cc20bc4d0a60d66940f3ab4a00c1d7b313497ca82fb0b4ab007930460205260409020546001600160a01b031690565b61043b8383836001610f79565b6000600080516020611a038339815191528161096d85610f3f565b90506001600160a01b038416156109895761098981858761108f565b6001600160a01b038116156109c9576109a6600086600080610f79565b6001600160a01b0381166000908152600383016020526040902080546000190190555b6001600160a01b038616156109fa576001600160a01b03861660009081526003830160205260409020805460010190555b600085815260028301602052604080822080546001600160a01b0319166001600160a01b038a811691821790925591518893918516917fddf252ad1be2c89b69c2b068fc378daa952ba7f163c4a11628f55a4df523b3ef91a495945050505050565b610a646110f3565b61038c828261113c565b61063a6110f3565b610a7e6110f3565b6108ab8161116d565b33610ab97f9016d09d72d40fdae2fd8ceac6b6234c7706214fd39c1cd1e609a0528c199300546001600160a01b031690565b6001600160a01b03161461063a5760405163118cdaa760e01b81523360048201526024016103b6565b7f9016d09d72d40fdae2fd8ceac6b6234c7706214fd39c1cd1e609a0528c19930080546001600160a01b031981166001600160a01b03848116918217845560405192169182907f8be0079c531659141344cd1fd0a4f28419497f9722a3daafe3b4186f6b6457e090600090a3505050565b61038c828260405180602001604052806000815250611175565b60008281527f0542a41881ee128a365a727b282c86fa859579490b9bb45aab8503648c8e790060208190526040909120610ba783826118b9565b506040518381527ff8e1a15aba9398e019f0b49df1a4fde98ee17ae345cb5f6b5e2c27f5033e8ce79060200160405180910390a1505050565b600080516020611a038339815191526001600160a01b038316610c2157604051630b61174360e31b81526001600160a01b03841660048201526024016103b6565b6001600160a01b038481166000818152600584016020908152604080832094881680845294825291829020805460ff191687151590811790915591519182527f17307eab39ab6107e8899845ad3d59bd9653f200f220920489ca2b5937696c31910160405180910390a350505050565b6001600160a01b0383163b1561041a57604051630a85bd0160e11b81526001600160a01b0384169063150b7a0290610cd3903390889087908790600401611979565b6020604051808303816000875af1925050508015610d0e575060408051601f3d908101601f19168201909252610d0b918101906119b6565b60015b610d77573d808015610d3c576040519150601f19603f3d011682016040523d82523d6000602084013e610d41565b606091505b508051600003610d6f57604051633250574960e11b81526001600160a01b03851660048201526024016103b6565b805181602001fd5b6001600160e01b03198116630a85bd0160e11b14610db357604051633250574960e11b81526001600160a01b03851660048201526024016103b6565b5050505050565b60607f0542a41881ee128a365a727b282c86fa859579490b9bb45aab8503648c8e7900610de6836108d3565b5060008381526020829052604081208054610e00906117b1565b80601f0160208091040260200160405190810160405280929190818152602001828054610e2c906117b1565b8015610e795780601f10610e4e57610100808354040283529160200191610e79565b820191906000526020600020905b815481529060010190602001808311610e5c57829003601f168201915b505050505090506000610e9760408051602081019091526000815290565b90508051600003610eaa57509392505050565b815115610edd578082604051602001610ec49291906119d3565b6040516020818303038152906040529350505050919050565b610ee68561118c565b95945050505050565b60006001600160e01b031982166380ac58cd60e01b1480610f2057506001600160e01b03198216635b5e139f60e01b145b806102c257506301ffc9a760e01b6001600160e01b03198316146102c2565b60009081527f80bb2b638cc20bc4d0a60d66940f3ab4a00c1d7b313497ca82fb0b4ab007930260205260409020546001600160a01b031690565b600080516020611a038339815191528180610f9c57506001600160a01b03831615155b1561105e576000610fac856108d3565b90506001600160a01b03841615801590610fd85750836001600160a01b0316816001600160a01b031614155b8015610feb5750610fe98185610823565b155b156110145760405163a9fbf51f60e01b81526001600160a01b03851660048201526024016103b6565b821561105c5784866001600160a01b0316826001600160a01b03167f8c5be1e5ebec7d5bd14f71427d1e84f3dd0314c0f7b2291e5b200ac8c7c3b92560405160405180910390a45b505b600093845260040160205250506040902080546001600160a01b0319166001600160a01b0392909216919091179055565b61109a838383611201565b61043b576001600160a01b0383166110c857604051637e27328960e01b8152600481018290526024016103b6565b60405163177e802f60e01b81526001600160a01b0383166004820152602481018290526044016103b6565b7ff0c57e16840df040f15088dc2f81fe391c3923bec73e23a9662efc9c229c6a0054600160401b900460ff1661063a57604051631afcd79f60e31b815260040160405180910390fd5b6111446110f3565b600080516020611a038339815191528061115e84826118b9565b506001810161041a83826118b9565b6108786110f3565b61117f8383611267565b61043b6000848484610c91565b6060611197826108d3565b5060006111af60408051602081019091526000815290565b905060008151116111cf57604051806020016040528060008152506111fa565b806111d9846112cc565b6040516020016111ea9291906119d3565b6040516020818303038152906040525b9392505050565b60006001600160a01b0383161580159061125f5750826001600160a01b0316846001600160a01b0316148061123b575061123b8484610823565b8061125f5750826001600160a01b03166112548361090b565b6001600160a01b0316145b949350505050565b6001600160a01b03821661129157604051633250574960e11b8152600060048201526024016103b6565b600061129f83836000610952565b90506001600160a01b0381161561043b576040516339e3563760e11b8152600060048201526024016103b6565b606060006112d98361135f565b600101905060008167ffffffffffffffff8111156112f9576112f96116bf565b6040519080825280601f01601f191660200182016040528015611323576020820181803683370190505b5090508181016020015b600019016f181899199a1a9b1b9c1cb0b131b232b360811b600a86061a8153600a850494508461132d57509392505050565b60008072184f03e93ff9f4daa797ed6e38ed64bf6a1f0160401b831061139e5772184f03e93ff9f4daa797ed6e38ed64bf6a1f0160401b830492506040015b6d04ee2d6d415b85acef810000000083106113ca576d04ee2d6d415b85acef8100000000830492506020015b662386f26fc1000083106113e857662386f26fc10000830492506010015b6305f5e1008310611400576305f5e100830492506008015b612710831061141457612710830492506004015b60648310611426576064830492506002015b600a83106102c25760010192915050565b6001600160e01b0319811681146108ab57600080fd5b60006020828403121561145f57600080fd5b81356111fa81611437565b60005b8381101561148557818101518382015260200161146d565b50506000910152565b600081518084526114a681602086016020860161146a565b601f01601f19169290920160200192915050565b6020815260006111fa602083018461148e565b6000602082840312156114df57600080fd5b5035919050565b80356001600160a01b03811681146114fd57600080fd5b919050565b6000806040838503121561151557600080fd5b61151e836114e6565b946020939093013593505050565b60008060006060848603121561154157600080fd5b61154a846114e6565b9250611558602085016114e6565b9150604084013590509250925092565b6000806040838503121561157b57600080fd5b611584836114e6565b9150611592602084016114e6565b90509250929050565b6000602082840312156115ad57600080fd5b6111fa826114e6565b60008083601f8401126115c857600080fd5b50813567ffffffffffffffff8111156115e057600080fd5b6020830191508360208260051b85010111156115fb57600080fd5b9250929050565b60008060008060006060868803121561161a57600080fd5b611623866114e6565b9450602086013567ffffffffffffffff8082111561164057600080fd5b61164c89838a016115b6565b9096509450604088013591508082111561166557600080fd5b50611672888289016115b6565b969995985093965092949392505050565b6000806040838503121561169657600080fd5b61169f836114e6565b9150602083013580151581146116b457600080fd5b809150509250929050565b634e487b7160e01b600052604160045260246000fd5b600080600080608085870312156116eb57600080fd5b6116f4856114e6565b9350611702602086016114e6565b925060408501359150606085013567ffffffffffffffff8082111561172657600080fd5b818701915087601f83011261173a57600080fd5b81358181111561174c5761174c6116bf565b604051601f8201601f19908116603f01168101908382118183101715611774576117746116bf565b816040528281528a602084870101111561178d57600080fd5b82602086016020830137600060208483010152809550505050505092959194509250565b600181811c908216806117c557607f821691505b6020821081036117e557634e487b7160e01b600052602260045260246000fd5b50919050565b808201808211156102c257634e487b7160e01b600052601160045260246000fd5b634e487b7160e01b600052603260045260246000fd5b6000808335601e1984360301811261183957600080fd5b83018035915067ffffffffffffffff82111561185457600080fd5b6020019150368190038213156115fb57600080fd5b601f82111561043b576000816000526020600020601f850160051c810160208610156118925750805b601f850160051c820191505b818110156118b15782815560010161189e565b505050505050565b815167ffffffffffffffff8111156118d3576118d36116bf565b6118e7816118e184546117b1565b84611869565b602080601f83116001811461191c57600084156119045750858301515b600019600386901b1c1916600185901b1785556118b1565b600085815260208120601f198616915b8281101561194b5788860151825594840194600190910190840161192c565b50858210156119695787850151600019600388901b60f8161c191681555b5050505050600190811b01905550565b6001600160a01b03858116825284166020820152604081018390526080606082018190526000906119ac9083018461148e565b9695505050505050565b6000602082840312156119c857600080fd5b81516111fa81611437565b600083516119e581846020880161146a565b8351908301906119f981836020880161146a565b0194935050505056fe80bb2b638cc20bc4d0a60d66940f3ab4a00c1d7b313497ca82fb0b4ab0079300a2646970667358221220a696a8623ca6aef20346713ed75b35442fee1355206de2e491a8faf9b9b70fd264736f6c63430008170033",
  "devdoc": {
    "errors": {
      "ERC721IncorrectOwner(address,uint256,address)": [
        {
          "details": "Indicates an error related to the ownership over a particular token. Used in transfers.",
          "params": {
            "owner": "Address of the current owner of a token.",
            "sender": "Address whose tokens are being transferred.",
            "tokenId": "Identifier number of a token."
          }
        }
      ],
      "ERC721InsufficientApproval(address,uint256)": [
        {
          "details": "Indicates a failure with the `operator`s approval. Used in transfers.",
          "params": {
            "operator": "Address that may be allowed to operate on tokens without being their owner.",
            "tokenId": "Identifier number of a token."
          }
        }
      ],
      "ERC721InvalidApprover(address)": [
        {
          "details": "Indicates a failure with the `approver` of a token to be approved. Used in approvals.",
          "params": {
            "approver": "Address initiating an approval operation."
          }
        }
      ],
      "ERC721InvalidOperator(address)": [
        {
          "details": "Indicates a failure with the `operator` to be approved. Used in approvals.",
          "params": {
            "operator": "Address that may be allowed to operate on tokens without being their owner."
          }
        }
      ],
      "ERC721InvalidOwner(address)": [
        {
          "details": "Indicates that an address can't be an owner. For example, `address(0)` is a forbidden owner in EIP-20. Used in balance queries.",
          "params": {
            "owner": "Address of the current owner of a token."
          }
        }
      ],
      "ERC721InvalidReceiver(address)": [
        {
          "details": "Indicates a failure with the token `receiver`. Used in transfers.",
          "params": {
            "receiver": "Address to which tokens are being transferred."
          }
        }
      ],
      "ERC721InvalidSender(address)": [
        {
          "details": "Indicates a failure with the token `sender`. Used in transfers.",
          "params": {
            "sender": "Address whose tokens are being transferred."
          }
        }
      ],
      "ERC721NonexistentToken(uint256)": [
        {
          "details": "Indicates a `tokenId` whose `owner` is the zero address.",
          "params": {
            "tokenId": "Identifier number of a token."
          }
        }
      ],
      "InvalidInitialization()": [
        {
          "details": "The contract is already initialized."
        }
      ],
      "NotInitializing()": [
        {
          "details": "The contract is not initializing."
        }
      ],
      "OwnableInvalidOwner(address)": [
        {
          "details": "The owner is not a valid owner account. (eg. `address(0)`)"
        }
      ],
      "OwnableUnauthorizedAccount(address)": [
        {
          "details": "The caller account is not authorized to perform an operation."
        }
      ]
    },
    "events": {
      "Approval(address,address,uint256)": {
        "details": "Emitted when `owner` enables `approved` to manage the `tokenId` token."
      },
      "ApprovalForAll(address,address,bool)": {
        "details": "Emitted when `owner` enables or disables (`approved`) `operator` to manage all of its assets."
      },
      "BatchMetadataUpdate(uint256,uint256)": {
        "details": "This event emits when the metadata of a range of tokens is changed. So that the third-party platforms such as NFT market could timely update the images and related attributes of the NFTs."
      },
      "Initialized(uint64)": {
        "details": "Triggered when the contract has been initialized or reinitialized."
      },
      "MetadataUpdate(uint256)": {
        "details": "This event emits when the metadata of a token is changed. So that the third-party platforms such as NFT market could timely update the images and related attributes of the NFT."
      },
      "Transfer(address,address,uint256)": {
        "details": "Emitted when `tokenId` token is transferred from `from` to `to`."
      }
    },
    "kind": "dev",
    "methods": {
      "approve(address,uint256)": {
        "details": "See {IERC721-approve}."
      },
      "balanceOf(address)": {
        "details": "See {IERC721-balanceOf}."
      },
      "batchMint(address,uint256[],string[])": {
        "details": "Mint a new token."
      },
      "constructor": {
        "custom:oz-upgrades-unsafe-allow": "constructor"
      },
      "getApproved(uint256)": {
        "details": "See {IERC721-getApproved}."
      },
      "isApprovedForAll(address,address)": {
        "details": "See {IERC721-isApprovedForAll}."
      },
      "name()": {
        "details": "See {IERC721Metadata-name}."
      },
      "owner()": {
        "details": "Returns the address of the current owner."
      },
      "ownerOf(uint256)": {
        "details": "See {IERC721-ownerOf}."
      },
      "renounceOwnership()": {
        "details": "Leaves the contract without owner. It will not be possible to call `onlyOwner` functions. Can only be called by the current owner. NOTE: Renouncing ownership will leave the contract without an owner, thereby disabling any functionality that is only available to the owner."
      },
      "safeTransferFrom(address,address,uint256)": {
        "details": "See {IERC721-safeTransferFrom}."
      },
      "safeTransferFrom(address,address,uint256,bytes)": {
        "details": "See {IERC721-safeTransferFrom}."
      },
      "setApprovalForAll(address,bool)": {
        "details": "See {IERC721-setApprovalForAll}."
      },
      "symbol()": {
        "details": "See {IERC721Metadata-symbol}."
      },
      "transferFrom(address,address,uint256)": {
        "details": "See {IERC721-transferFrom}."
      },
      "transferOwnership(address)": {
        "details": "Transfers ownership of the contract to a new account (`newOwner`). Can only be called by the current owner."
      }
    },
    "stateVariables": {
      "minter": {
        "details": "Collection minter address."
      }
    },
    "version": 1
  },
  "userdoc": {
    "kind": "user",
    "methods": {},
    "version": 1
  },
  "storageLayout": {
    "storage": [
      {
        "astId": 3602,
        "contract": "contracts/nft/WormfareGenesis.sol:WormfareGenesis",
        "label": "totalTokens",
        "offset": 0,
        "slot": "0",
        "type": "t_uint256"
      },
      {
        "astId": 3605,
        "contract": "contracts/nft/WormfareGenesis.sol:WormfareGenesis",
        "label": "minter",
        "offset": 0,
        "slot": "1",
        "type": "t_address"
      }
    ],
    "types": {
      "t_address": {
        "encoding": "inplace",
        "label": "address",
        "numberOfBytes": "20"
      },
      "t_uint256": {
        "encoding": "inplace",
        "label": "uint256",
        "numberOfBytes": "32"
      }
    }
  }
}